:10000000E9C100000C94771702C2000000C2000092
:10001000FEC10000FCC10000FAC10000F8C10000F0
:10002000F6C10000F4C100000C94471C0C94131D91
:100030000C942916ECC10000EAC10000E8C10000E0
:10004000E6C10000E4C10000E2C10000E0C1000020
:10005000DEC100000C94A016DAC10000D8C1000077
:10006000D6C10000D4C10000D2C10000D0C1000040
:10007000CEC10000CCC10000CAC10000C8C1000050
:10008000C6C10000C4C10000C2C10000C0C1000060
:10009000BEC10000BCC10000BAC10000B8C1000070
:1000A000B6C10000B4C10000B2C1000029001E00AA
:1000B0001F002000210022002F00350014001A002C
:1000C0001500170017002D002B0004081604070167
:1000D00009020A004C00E1001D001B001900050088
:1000E0000500E000E000E200E200E30021522A0007
:1000F000E10028002700260025002400230030000E
:100100003100130012000C0018001C002E003400F7
:1001100033180F140E110D120B002800E5003800E3
:1001200037003600100011002A004F005200510025
:10013000500022522C00E60044003A003B003C00F4
:100140003D003E002F0235021E021F022002210246
:1001500022022D0229004D0051004E005000530094
:100160004A00E1004F004A0052004B004900E00005
:10017000E000E300E200E00001002A00E1004500A9
:1001800043004200410040003F0030023102300293
:100190002F022E02240223022E02340233024F00C9
:1001A0005200510050004D0034023802370236022E
:1001B0001000110028004D004E004B004A00235251
:1001C0002C00E6000000000000000000000000001D
:1001D000000000000000000000000000000000001F
:1001E000000000000000000000000000000000000F
:1001F00000000000000000000000000000000000FF
:1002000000000000000000000000000000000000EE
:1002100000000000000000000000000000000000DE
:1002200000000000000000000000000000000000CE
:1002300000000000000000000000000000000000BE
:1002400000000000000000000000010000000000AD
:10025000000000000000000000000000000000009E
:10026000000000000000000000000000000000008E
:10027000000000000000000000000000000000007E
:10028000000000000000000000000000000000006E
:10029000000000000000000000000000000000005E
:1002A000000000000000000000000000000000004E
:1002B000000000000000000000000000000000003E
:1002C000000000000000000000000000000000002E
:1002D00000000000000001000000000020034500B5
:1002E000720067006F004400610073006800200026
:1002F00072006500760031002E00320000000C0311
:100300004F006D006B0062006400000004030904EC
:1003100009023B00020100A0FA09040000010301E8
:100320000100092111010001224400070581030891
:10033000000109040100010300000009211101006E
:100340000122320007058203200001120100020091
:10035000000008EDFE6060000101020001050109D6
:1003600080A101850319012AB700150126B7009560
:100370000175108100C0050C0901A1018504190156
:100380002AA002150126A002950175108100C00562
:10039000010906A101050719E029E71500250195C6
:1003A0000875018102950175088101050719002969
:1003B000FF150026FF009506750881000508190144
:1003C0002905150025019505750191029501750313
:1003D0009101C00011241FBECFEFDAE0DEBFCDBF18
:1003E00011E0A0E0B1E0E6EFFEE302C005900D925F
:1003F000A43AB107D9F722E0A4EAB1E001C01D9206
:10040000AE3AB207E1F70E94B8120C94461FF8CD3D
:100410008430C8F46A30B8F44730A8F450E097E06C
:10042000699F400D511D112496E4899F400D511D77
:100430001124FA01EE0FFF1FE455FF4F85919591AE
:10044000282F822F089521E090E0FBCFE1CF08957F
:1004500081E0089581E00895FBCF089581E008953B
:1004600081E00895FDCF089508950895FDCF089582
:1004700008950895A6E0B0E0E0E4F2E00C94CD1E0B
:1004800049835A839E833091AB0189819A813111CE
:1004900017C03E81311589F0211579F04ED5182FFE
:1004A000682F89819A8128D569817A81812F0E945C
:1004B0006B0D2696E3E00C94E91E2FD5182FF4CF90
:1004C0003CD569817A81F3CFFC01262F408151818F
:1004D0006281738184819581CDCFCF93DF93EC01CD
:1004E00061E0F2DFBE01B6DF811529F061E0CE01E7
:1004F000EBDFBE01B1DFDF91CF9108950F931F9322
:10050000CF93DF93EC0160E0DFDF8C01BE01ADDF54
:10051000BE01C801ABDFDF91CF911F910F9108950C
:100520000F931F93CF93DF93EC0161E0CDDF8C013C
:10053000BE0194DF811106C080E0DF91CF911F9151
:100540000F910895BE01C8018DDF8115A9F3BE0189
:10055000C8010E944514811579F3BE01C8010E94AB
:100560000A13811549F3BE01C8010E94E2128115E8
:1005700019F3BE01C8010E94B10E8115E9F2BE0156
:10058000C8010E94C30E8115B9F2BE01C8010E94C4
:10059000DD0ED3CF21E030E002C0220F331F8A9559
:1005A000E2F7C901E4C3CF93C82F81E090E00C2E9D
:1005B00002C0880F991F0A94E2F70E94920B8C2FB9
:1005C000E9DFCF91089581E0089581E00895FBCFA0
:1005D0000895CF93C82F7AD38C2FF7DF8C2FF7DFB6
:1005E000CF91089581E0F5DF0C94C41680E0F1DF2F
:1005F0000C94D5163DDF0E94BF1517C018D039DF07
:100600000C94C31581E008950895CF93DF93D82FFC
:10061000F9DFC82F811511F08D2FF6DF8C2FDF91B8
:10062000CF9108950895F1CF089580E0FCCF0E9406
:100630008C14F9CFCF930E948C14C82F8091A601FF
:100640008C1771F0C093A6010E9494166093A701C5
:100650007093A8018093A9019093AA018C2FE3DFE6
:10066000CF910895ADE0B0E0E8E3F3E00C94CE1E46
:10067000488759876A877B878C879D8791116BD7BD
:100680001F8286E0FE0138969E012F5F3F4FD90101
:1006900001900D928A95E1F78D8181110CC029811D
:1006A0003A814B815C816D817E818F819FD62D96B1
:1006B000E2E00C94EA1ECE0101960FDF8111EFCF2C
:1006C000F6CFFC012481213019F48081918168C426
:1006D0000895CF93C82F8115B9F08238B9F40E94DC
:1006E000A11481FD11C089E30E944E159DD78FEFA3
:1006F00097EE23E0815090402040E1F700C00000D9
:1007000089E30E94541590D7CF910895833899F4C6
:100710000E94A11480FDF8CF83E50E944E1584D776
:100720008FEF91EE24E0815090402040E1F700C02F
:10073000000083E5E6CF843899F40E94A11482FD7D
:10074000E3CF87E40E944E156FD78FEF91EE24E040
:10075000815090402040E1F700C0000087E4D1CFF5
:100760008450813A68F48C2F0E941215811521F073
:100770008C2F0E94541558D78C2F0E944E15C3CF32
:100780008C2F805E883048F481E0C1FD84E0C0FD9C
:10079000880FC2FD8295C0D6B6CF8C2F855A833084
:1007A00030F48C2F8452990B0E94B014ADCFC85AEC
:1007B000CB3108F0A9CFEC2FF0E0EE0FFF1FE75D83
:1007C000FE4F808191810E94D7149ECF811509F43C
:1007D00047C0823861F40E94A11481FF41C089E3BF
:1007E0000E944E1521D789E30E9454151DC78338F6
:1007F00051F40E94A11480FF33C083E50E944E157E
:1008000013D783E5F1CF843851F40E94A11482FFFD
:1008100027C087E40E944E1507D787E4E5CF982FBD
:100820009450913A08F3982F905E983050F4982F96
:1008300081E091FD84E090FD880F92FD829572D653
:10084000D5CF982F955A933020F480E090E00C9407
:10085000B014885A8B3120F480E090E00C94D714C7
:1008600008951F93CF93DF93182FEB0132DF20976A
:1008700031F4812FABDFDF91CF911F9108958FE984
:100880009FE00197F1F700C000002197F0CF60E5ED
:1008900070E0893311F060E070E0E3CF811511F072
:1008A0003BD6C2C60895811511F03CD6BDC6089549
:1008B000A0E0B0E0EEE5F4E00C94C81E6C01D62F89
:1008C000C72FFC011581068102950F701AD6E82EFC
:1008D0008115E9F0E12E1115D1F08C2F807F803445
:1008E00061F08D2F805E883098F18C2F807E803271
:1008F00021F4D23068F1011559F18091820282FF12
:1009000027C082E0ADD6FDD591E08927E82E9C2F47
:1009100092959F70983009F4CAC068F59430D0F46D
:10092000923008F438C08C2F8F70F82EC07FC03200
:1009300019F0F29480EFF822D13008F456C009F48F
:100940007EC0111509F487C0011509F467C036C0CF
:10095000E12CDDCF09F48FC0E11409F4D8C0CDD566
:1009600080FDD5C0F6011582C2D531D2C60183D132
:10097000BED53BD2CCC0993009F40BC19A5F9F70B1
:10098000923050F7D23F09F011C18C2F8F711111A5
:100990000BC11DD2B9C00C2F0F70C03110F00295E1
:1009A000007F111581F0011549F08D2F805E883090
:1009B00010F0D11105C0802FAFD536D68D2F21C0B4
:1009C000802FBBD5FACF8D2F01DF011509F4C4CFDD
:1009D0008D2F805E883010F0D11103C0802FA2D5FA
:1009E00002C0802FB0D520D6B7CF8091820282FD81
:1009F00011C0111541F0F11419F08F2D8DD514D6B9
:100A000080E067DEA9CF80E0E1DEF11409F4A4CF35
:100A10008F2DE5CF111551F0013018F48F2D3EDFE9
:100A20009BCF09F099CF8F2DAAD596CF011194CFE6
:100A30008F2D39DF8F2DAED58F2D93D58DCF1115FD
:100A400021F0063008F088CFE9CF053008F084CFD8
:100A50008F2D29DF81CF0115D9F3D93349F48FEFD9
:100A600097EE23E0815090402040E1F700C0000065
:100A70008D2FACDE71CF8C2F86958695837081305B
:100A800060F009F069CF8D2F9C2F9370111102C077
:100A900080E090E00E94D7145FCF8D2F9C2F937041
:100AA000111102C080E090E00E94B01455CF8C2F4D
:100AB0008370C1F5111128C04D2F4295469547709E
:100AC000440F440F2D2F2F7030E0042E02C0220F50
:100AD000331F0A94E2F780E090E0D4FF09C08FE072
:100AE00090E002C0880F991F4A95E2F78095909593
:100AF000C695C695C370822B932BC23079F0C33054
:100B000079F0C13049F03CD10E948C148CDDCDB716
:100B1000DEB7E8E00C94E41E2CD1F6CF38D1F4CF48
:100B200026D1F2CF111559F1C0FFEECF4D2F4295CE
:100B300046954770440F440F2D2F2F7030E0042E40
:100B400002C0220F331F0A94E2F780E090E0D4FF46
:100B500009C08FE090E002C0880F991F4A95E2F724
:100B600080959095C695C695C370822B932BC23005
:100B700061F0C33061F0C13031F05CD1C5CF82305B
:100B800008F4C2CFD3CF4FD1BFCF5BD1BDCF0CD1F3
:100B9000BBCFCF70111529F08C2F19D18D2F7EDE90
:100BA000B3CF8D2F80DE8C2F20D1AECF58F4D03F25
:100BB000B1F0D13F79F01115B9F1011591F18D2FF7
:100BC00088DDA2CFD33FB1F0D43FA9F78091820254
:100BD00082FD18C08C2F8F71111531F3DACE1115EB
:100BE00039F0053008F090CF8C2F8F710ED18CCF5B
:100BF0000630F8CF111521F08C2F8F71DFD084CF04
:100C0000DAD082CF111529F063E08C2F8F7111D5C6
:100C10007BCF81E025D5023008F476CF82E020D565
:100C200073CF8C2F8F71B5CE011571F0D93349F484
:100C30008FEF97EE23E0815090402040E1F700C015
:100C400000008D2FC3DD60CF8C2F8F71ADCF0F9340
:100C50001F93CF93DF93EC01688179818D81A9D1B6
:100C60008C01F6D083D0B801CE0122DEDF91CF9186
:100C70001F910F910895CF93DF93EC018C81811523
:100C800081F0CE014DDC81110FC03BD4811549F0BC
:100C90008D81811531F08091820282FF02C082E055
:100CA000DFD4DF91CF910895CE01D1DFCE0126DCD4
:100CB000F8CF80E090E00E94B01480E090E00E94C5
:100CC000D71449D4B1C40E945A15F3CF33D4FBCF03
:100CD000282F92959F70963099F060F4925F9F70E4
:100CE000923030F4203FB1F038F481E0283E38F003
:100CF00080E008959A5FF3CF81E0243FC9F708951B
:100D000091E0813F09F090E081E0283E08F080E02A
:100D1000892B089581E00895FC012481211521F09B
:100D2000808191813DD1D4CF80E00895A6E0B0E0EC
:100D3000ECE9F6E00C94CE1E2696E2E00C94EA1E56
:100D4000A7E0B0E0E6EAF6E00C94CE1E2796E2E0DB
:100D50000C94EA1E0895FECF0895FDCF0895FADFA2
:100D6000FCDF8093D2019093D30108950895F7CFCB
:100D700008952091D2013091D301822B932BEFCF94
:100D80002091D2013091D30182239323E8CF209187
:100D9000D2013091D30182279327E1CFDBCF089591
:100DA000FDCF0895D7CF0895FDDFFADF8093D001FE
:100DB0009093D101089580E090E0F6CF21E030E0FB
:100DC00002C0220F331F8A95E2F7C901EDCF21E05F
:100DD00030E002C0220F331F8A95E2F78091D001E4
:100DE0009091D101822B932BDFCF21E030E002C024
:100DF000220F331F8A95E2F7209530958091D0011C
:100E00009091D10182239323CFCF21E030E002C023
:100E1000220F331F8A95E2F78091D0019091D10182
:100E200082279327C1CF2091D0013091D101822B0D
:100E3000932BBACF2091D0013091D10182239323FB
:100E4000B3CF2091D0013091D10182279327ACCF2D
:100E50000895CF93C1E061FDC4E060FDCC0F62FD59
:100E6000C29593E0769567959A95E1F7660F771F9F
:100E7000660F771F460F571FFA0140E050E090E0E1
:100E80006191DF019C01042E02C0369527950A94DA
:100E9000E2F72695220B26272C2326272E934F5F39
:100EA0005F4F4430510561F7CF910895A82FA77087
:100EB00023E0969587952A95E1F7880F991F880F6B
:100EC000991F680F791FFB0140E050E080E02191FD
:100ED00030E00A2E02C0369527950A94E2F7217079
:100EE000042E01C0220F0A94EAF7822B4F5F5F4F56
:100EF0004430510561F70895262F9A3068F4873001
:100F000058F4682F70E087E0989F600D711D1124E0
:100F10004CEA51E0822F9DCF0895292F9A3058F442
:100F2000873048F490E06CEA71E037E0239F800D51
:100F3000911D1124BBCF80E00895CF92DF92FF92E4
:100F40000F931F93CF93DF936C010091D001109109
:100F5000D1018091D2019091D301082B192BCFE0C0
:100F6000D0E081E090E00C2E02C0880F991F0A9417
:100F7000E2F780239123892B61F4219790F7F12CDC
:100F80008F2DDF91CF911F910F91FF90DF90CF9028
:100F90000895FC2EB6018C2FA9D5019771F3F0CFDF
:100FA000CF93DF93EC01C9DFBE01A0D5DF91CF91D4
:100FB00008951F93CF93DF93EB019091AB019115AF
:100FC00031F0CB01EDDFDF91CF911F9108958115B5
:100FD00051F0CB01B2DF182F682FCE018DDFBE019B
:100FE000812F84D5F0CFCB0198DF182FF8CF0F9346
:100FF0001F930091D4018091D501801303C01F91EC
:101000000F91089587E0089FF0011124EA52FE4FE6
:10101000208131814281538164817581868190DE96
:101020000F5F1F4F0770E7CF20910E0230910F0224
:1010300040911002509111026091120270911302BE
:10104000809114027DCE80911402803170F48091E1
:101050001302811551F0E091D4012091D501309116
:101060000F0240910E022E1301C00895BF0187E0C8
:10107000E89FF0011124DF01AA52BE4F14968C9113
:101080001497811549F111968C911197831324C0FF
:101090008C91841321C015968C91159781111CC0D9
:1010A00012968D919D91A0911002B09111028A1B10
:1010B0009B0B8837910580F4809114028F708061BA
:1010C00080931402E452FE4F80818F708061808390
:1010D0008EE092E0D0DD8BCF6F5F7F4FFB01E7703A
:1010E000C2CFE091D4019091D501E91302C080E014
:1010F00008959F0157E0E59FF0011124EA52FE4F49
:101100005181561306C05081581303C055815413A2
:1011100005C02F5F3F4FF901E770E7CF81E00895E9
:101120008F929F92AF92BF92DF92EF92FF920F93B6
:101130001F93CF93DF93CDB7DEB72D970FB6F894FB
:10114000DEBF0FBECDBF8C0186E0F801DE01189630
:1011500001900D928A95E1F7F801F58084819EE077
:10116000892E92E0992E90911202911117C081154B
:1011700009F4EFC0F11409F42EC1C801CDDD8115C9
:1011800009F429C187E0F801D40101900D928A95F4
:10119000E1F7C40196DA57DF47DFDBC0E080A280C9
:1011A000B380D09013022091100230911102A5015A
:1011B000421B530BD11409F4CFC04837510508F036
:1011C0009EC0811509F4C5C090910F029180809155
:1011D0001402803108F065C0991226C090910E0269
:1011E0009E1122C0F11057C08F708061809314024D
:1011F0001BDF8EE092E03FDD80911402F8018683D0
:10120000F12C8F2D2D960FB6F894DEBF0FBECDBFFB
:10121000DF91CF911F910F91FF90EF90DF90BF90E2
:10122000AF909F908F900895F11035C040E0692DE8
:101230008E2D57DF40E0692D8E2D53DFF82E811162
:10124000DFCF88859985ACDE292F22952F709034C9
:1012500050F49F70223078F0911591F0F80196814A
:10126000903170F4CECF2A5F2F70223070F0C80119
:1012700002DDFD2CC6CF911519F0811509F4C1CFFF
:10128000805E883008F4BDCFF2CF803F08F4B9CF3C
:10129000815F8330F7CF80911402816080931402C4
:1012A000AFCF991207C090910E029E1103C0F114A6
:1012B00009F473C0C80130DD811509F48CC0F11444
:1012C00009F489C080911402803280F020910E02CE
:1012D00030910F0229833A83AB82BC829091120233
:1012E0009D831E828F83CE010196C5DC87E0F801C5
:1012F000AEE0B2E001900D928A95E1F74CCF90916B
:101300001402903188F4488559856A857B858C85DF
:101310009D850CDD8EE092E0AEDCF40187E0119259
:101320008A95E9F781DE6CCF811599F020910F0243
:1013300081812813BFCF80910E028E11BBCFF11097
:10134000B9CF9683C80197DCF40187E011928A95A2
:10135000E9F7FF24F39455CF4837510508F03EC014
:101360008115B9F3F114B9F190910F0281819813AD
:1013700029C080910E028E1125C08091140280FD3B
:1013800018C08031B0F08683807F803F39F086813D
:10139000982F907F905F8F70892B8683C8016BDCBC
:1013A00087E0F801AEE0B2E001900D928A95E1F796
:1013B000F3CE87E0F801AEE0B2E001900D928A959D
:1013C000E1F7C7CFC801A8DC811190CF809114024A
:1013D000816080931402C8014EDCBBCF48855985DB
:1013E0006A857B858C859D85A1DC97CFAEE0B0E0DA
:1013F000ECEFF9E00C94CD1E288739874A875B878C
:101400006C877D878E87CE0108968ADE6C85811574
:1014100099F0611539F0288539854A855B857D8588
:101420008E858EDC8091D4019091D50189133DC0C9
:101430002E96E3E00C94E91E87E09E01285F3F4F63
:10144000F90127503109D90101900D928A95E1F7F0
:10145000611541F3A091D5018A2F90E083958770A3
:1014600090E0AC012091D4012417150691F097E08B
:101470009A9FD0011124AA52BE4F9E012F5F3F4F69
:10148000F90101900D929A95E1F74093D501AFDDF6
:10149000C9CF1CDC1092D5011092D401EEE0F2E02D
:1014A00087E011928A95E9F7BDCF17E0189FC00138
:1014B00011248A529E4F34DE811509F4B9CFE09190
:1014C000D4011E9FF0011124EA52FE4F2081318188
:1014D0004281538164817581868132DC8091D4019F
:1014E0009091D501019687708093D4019BCF809114
:1014F0001D02869586958695089580911D028770B8
:10150000089590911D02977081E0911101C080E0D3
:10151000089580912902089590912902982B909323
:10152000290208958095982F80912902892380931C
:101530002902089510922902089590912802982B6B
:101540009093280208958095982F809128028923EE
:101550008093280208951092280208950895FECFDE
:10156000089590911E02292F282329F08095892320
:1015700080931E02F4CF08950895FECF08959091B0
:101580001F02292F2823281721F0982B90931F0240
:10159000F4CF089590911F02292F282329F08095D8
:1015A000892380931F02E9CF089580911F0281153E
:1015B00021F010921F0280E0E0CF08950F931F9357
:1015C000CF93DF9380910001909101018C01C09134
:1015D000290280912802C82B80911F02811529F0D1
:1015E000C82B0E94FE148111E0DFF801C083C09176
:1015F0000001D091010148E050E065E172E0CE01C8
:101600000E94F51E892B59F088E0FE01A5E1B2E0A9
:1016100001900D928A95E1F7CE010E94A314DF910B
:10162000CF911F910F910895C9CF08950895FECFCE
:1016300008959091820292FF0EC0982F990F990FF2
:10164000990F962B90931D02C2DB80911D02869507
:1016500086958695ECCFBBCB10921D0280E0E7CF3C
:1016600090911D028095892380931D02282F277059
:1016700059F4891749F09091820292FF05C086952E
:1016800086958695B2DBE8CF08959091820292FB11
:10169000222720F9281749F080FB92F990938202C3
:1016A00081E892E043D082E0DBCF0895809182020E
:1016B000002482FF0394802DE8CF81E0E6CF80E014
:1016C000E4CF80E090E0BC01DFC380E090E0BC01AB
:1016D000D5D3F7CFA3E0B0E0E0E7FBE00C94CE1E5B
:1016E00086D391D31B82CE010396A4D381E090E0F0
:1016F0008093D2011092D301A9D3198284E18A8305
:10170000CE010196B4D3E1DF2396E2E00C94EA1E09
:10171000E1CF08957EC308956BC3089580C30895F3
:101720008FC3089593C3089596C30895A0C30895E1
:10173000B1C30895A6E0B0E0E0EAFBE00C94CC1E53
:101740000E9488168C0180912A0290912B028017AA
:10175000910779F019821A820E948816BC0149818A
:101760005A8180E090E00E94320300932A02109395
:101770002B022696E4E00C94E81ED7D26093300248
:1017800070933102809332029093330260932C0263
:1017900070932D0280932E0290932F020895089546
:1017A0000895FDCF08950895FEDFFBCF0895FECF85
:1017B00008950895FEDFFBCF81E008958FEA9EE053
:1017C000E2D6EEDFF1CF03C5089508950895089598
:1017D000FCDFFCDFFCCFA0DF811101C099DF84E3D7
:1017E00092E09CDF81E892E09FDF9ADFC0DA80918F
:1017F000D0019091D101D4CA0E947F166DD2ECD451
:1018000044D4E9DF0E948A140E941203C1D6F1D4A5
:10181000D1CFDDD481110C948B140895A6E0B0E0F3
:10182000E4E1FCE00C94C51EC7DF811108C082DF33
:10183000F0DF0E941A032696EBE00C94E11E40D4E0
:1018400087E7A82E82E0B82E750110E0F70100812D
:10185000812F2BD31F5F1A3009F445C09FEFE91A7F
:10186000F90A081799F38091340281FD24D3ABDF84
:10187000982E10E0812F19D3F82EF50181915F0188
:10188000F81661F18F25D82E00E0EE24E3948D2D1B
:101890008E21F1F0CC24C3948F2D8E2109F4C12C1C
:1018A000911489F0602F812F0E94E31581110BC0E4
:1018B00009831A830E948816BC0149815A8181E0FC
:1018C0009C2D0E9432034C2D602F812F0E94F71512
:1018D0000F5FEE0C0730D9F6F501F2921F5F1A3058
:1018E00049F64BDFA5CF0813BECFA1CF0F931F93AF
:1018F000CF93DF93FDD0EC01D23508F050C0D03546
:1019000008F0C8C0C03ED10530F5CD3CD10508F087
:101910009DC0C83AD10578F4C53AD10508F093C006
:10192000C130D105B1F1CE010497813A910588F11A
:10193000C0E0D0E02EC0CE01885A91094B97C0F785
:10194000C85AD0E0CC0FDD1FC15ADE4F0990D881B4
:10195000C02DD4641EC0D034A8F4D03208F0ADC07D
:10196000C83ED105B0F0CE0191509F3108F78D2FC0
:1019700062D1082F8C2F90E0BBD0D02FDF71C82F01
:10198000D92B07C08C2F90E0B3D0DF70C82FD92B94
:10199000D06ACE01DF91CF911F910F910895C03889
:1019A00082E5D807B8F5C03682E5D80708F056C0FA
:1019B000C03482E5D807C8F4C03282E5D80708F001
:1019C00047C08C2F8695869520E2829FC001112406
:1019D000C37021E030E002C0220F331FCA95E2F746
:1019E000E901C82BD92BDD68D4CF8C2F869586953D
:1019F000877020E2829FC0011124C37021E030E093
:101A000002C0220F331FCA95E2F7E901C82BD92B78
:101A1000DC68BFCFC03C82E5D80750F48C2F8F71B3
:101A2000C03AD24580F5982F84EF906AEC01B1CF8F
:101A3000CE01805C9245809708F07ACFDC2FDF7171
:101A4000C0EFD06AA6CFA497D064A3CFD065A1CFB2
:101A50008C2F8F71D82FC1EFD06A9BCF8C2F86959A
:101A60008695877020E2829FC0011124C37021E017
:101A700030E002C0220F331FCA95E2F7E901C82BFC
:101A8000D92BDA6886CFD7D0982F80E09F71EC01F0
:101A9000D0627FCF8C2F8F71CED053E0CC0FDD1F63
:101AA0005A95E1F7DF70282F84FF04C090E1899FE9
:101AB00090011124C22FD0696CCF8D2F8F71BBD0B4
:101AC000082F8C2F90E014D0302F3F71282F392B06
:101AD0003062E9015ECF462F7A3028F4673018F47F
:101AE000672F0C94260280E090E00895F4DFFECE8C
:101AF000803E9105D1F1C8F48133910509F481C08C
:101B000048F48932910509F471C08A32910509F4CB
:101B10007FC0089589339105E1F082389105C9F0BD
:101B20008533910509F45DC00895843E9105D1F196
:101B300048F4823E910531F1833E910541F181EEF9
:101B400090E00895863E9105C1F1873E9105F1F13F
:101B5000089520918102237009F064C020918202CF
:101B600023FF14C089E290E008952091810220FDB6
:101B700045C03091820230FF09C024FD24C083EEAD
:101B800090E008952091810222FDF7CF08952091E1
:101B9000810222FD44C03091820230FD43C024FF07
:101BA000F5CF11C02091820221FFF0CF80918102F8
:101BB00084FD09C087EE90E008952091810223FF03
:101BC000E5CF24FFF7CF80E090E0089520918102D7
:101BD00023FD2BC03091820231FFE1CF84EE90E0F3
:101BE00008952091810225FFD1CFBCCF20918102A1
:101BF00025FD1EC02091820223FFC8CF89E390E01B
:101C000008952091810226FFC1CF8AE290E00895D5
:101C10002091810226FFBACF81E390E0089582EE01
:101C200090E0089580EE90E0089586EE90E00895AB
:101C300085E390E008959091810292FF10C041E009
:101C4000282F2471243009F040E031E0282F28713A
:101C5000283009F030E0431711F02CE0822793FF81
:101C600010C041E0282F2471243109F040E031E018
:101C7000282F2871283109F030E0431711F02CE0AB
:101C800082273091820230FF10C051E0282F21714D
:101C9000213009F050E041E0282F2871283009F068
:101CA00040E0541711F029E0822731FF10C041E0D5
:101CB000282F2171213109F040E031E0282F2871CF
:101CC000283109F030E0431711F029E0822794FF12
:101CD00002C083FD877E08951092830210928402D1
:101CE00010928502109286020895EF92FF920F9350
:101CF0001F937B018C016BD2811112C00E9494163C
:101D00009701A801261B370B480B590BC901DA01B3
:101D10008093830290938402A0938502B0938602FD
:101D20001F910F91FF90EF90089551D2811539F0D6
:101D3000FBD7462F572FBC01CB01BA010895F4D72A
:101D4000DC01CB01409183025091840260918502B5
:101D500070918602480F591F6A1F7B1FEDCF80E0EC
:101D60000895CF939C01205E3245C1E020323105B9
:101D700038F4FB01C581C11103C08F710E94D302E9
:101D80008C2FCF9108959C01FB018581811599F0DD
:101D90002B359CE7390769F02C359CE7390721F092
:101DA0002A353C4721F0089581DC80E0089585DCE8
:101DB000FCCF85DCFACF81E008959C01FB01858191
:101DC000811599F021309CE7390761F023309CE7B9
:101DD000390739F021153C4749F40E94F20280E0AE
:101DE000089598DC0E94F602FACF81E008950895E4
:101DF00080E090E00E94131F9C0181E0233E3E4F53
:101E000009F080E0089563EE7EEF80E090E00C94AE
:101E1000321F6FEF7FEF80E090E00C94321FCF9382
:101E2000DF93EC0182E090E00E940B1F8883DF913A
:101E3000CF910895FC01608182E090E00C94181F1E
:101E400083E090E00E940B1F90E00895682F83E0EC
:101E500090E00C94181FCF93DF93EC0184E090E0A6
:101E60000E94131F88839983DF91CF910895FC010D
:101E70006081718184E090E00C94321FAB01BC0161
:101E80008FE090E00C942A1FAB01BC0183E190E04D
:101E90000C942A1F682F8EE090E00C94181F089570
:101EA000FECF08950895FECF0895E82FF0E0EE5696
:101EB000FD4F80810895089580EA8A95F1F708958D
:101EC00000C00895F9CF08950895FECF0895A5E0C4
:101ED000B0E0EDE6FFE00C94C91E79D1F82E8091B8
:101EE0009C0290E08E569D4FF114E1F18E010F5F40
:101EF0001F4FF80125E011922A95E9F7B80185D125
:101F0000E02ED12E8115B1F08091870290E045E05E
:101F100050E0B8018E569D4F0E94F51E21E020939F
:101F20003502892B91F4F12CBEDF8F2D2596E7E049
:101F30000C94E51E809135028115A9F3F80185E026
:101F400011928A95E9F710923502A0918702B0E0CC
:101F5000AE56BD4F85E0EE2DFD2D01900D928A9578
:101F6000E1F7E2CF2091870230E0BC01C9018E5633
:101F70009D4FD1D1AADFD9CFF894E82FE295EF7029
:101F8000F0E041A18F7021E001C0220F8A95EAF7AD
:101F9000922F9095942391A392A1822F892B82A3B3
:101FA00078940895CF93DF93CCE9D1E089918F3F66
:101FB00009F0E2DF81E0C13AD807C1F7C5E9D1E015
:101FC00089918F3F09F0D8DF81E0CC39D807C1F77C
:101FD000DF91CF910895A0E0B0E0E1EFFFE00C9435
:101FE000C81E6C01E62EC62FD0E08E0104561E4F8F
:101FF000F80180818F3F09F441C0F894E82FE29501
:10200000EF70F0E091A18F7021E001C0220F8A955E
:10201000EAF7892F822B81A382A12095282322A36E
:1020200078944EDFA5E9B1E031E0F12C2D912F3FFE
:1020300079F0E22FE295EF70E05EF0E0808190E0D1
:102040002F7002C0959587952A95E2F780FF1BC0F7
:1020500080E0F82A330F81E0AC39B80739F7F8018E
:1020600080818F3F09F088DF61E0F11001C060E0FE
:102070008E2D28DFF601EC0FFD1FF082CDB7DEB705
:10208000E8E00C94E41E832FE4CF9ED09DD090E036
:10209000811101C095E090939C0285E0891B80939B
:1020A000870280DFE2E9F2E08AE011928A95E9F79F
:1020B000E8E8F2E08AE011928A95E9F741D0F0CEA3
:1020C000AAE0B0E0E6E6F0E10C94CB1EFE0131960A
:1020D000DF018AE01D928A95E9F710E00E2FFF2EAE
:1020E000612F802F9F2D77DF812F8F5F182F8530F5
:1020F000B9F74AE050E0602F7F2D88E892E00E9417
:10210000F51E41E0892B91F440E060919C0270E063
:102110006E567D4F88E892E014D0182FD8DE912FAC
:10212000982B892F2A96E5E00C94E71E8AE0E02F91
:10213000FF2DA8E8B2E001900D928A95E1F7E5CF76
:102140000895EF92FF920F931F93CF93DF938C012B
:102150007B01C42F411571F081E080933802D8D5FE
:10216000809336029093370280E0CDB7DEB7E6E089
:102170000C94E61ED0913802D115B1F3809136024D
:102180009091370244D5059778F345E050E0B801C7
:10219000C7010E94F51E892B41F085E0F801D701A7
:1021A00001900D928A95E1F7CD2F109238028C2F75
:1021B000DCCFCF930E94AB1EC82F811102C00E94BA
:1021C000A71E8C2FCF91089580913C020895809195
:1021D0003B020895FCCF0895ECDF80933B02FADFC9
:1021E00080933C02F1DF80930201F1DF81113EC058
:1021F0000895EDDF811101C03BC0089581E0909109
:102200003D029A3008F080E008950F931F93CF931A
:10221000DF93EC018B0180913D028A3078F4B801A4
:10222000CE0177D081111FC080913D028F3FA1F474
:102230006FD58093390290933A0208C08091390299
:1022400090913A02E4D4843F914048F780E0DF91D6
:10225000CF911F910F9108958F5F80933D028A3037
:1022600038F781E0F4CF10923D02FBCFFCC5089512
:10227000FDC50895CF92DF92FF920F931F93CF93E6
:10228000DF936901E801082F880F110B41155105F3
:10229000B1F0F80133E0EE0FFF1F3A95E1F7ED5F83
:1022A000FE4F81819281825C9D4FE0812E2F30E034
:1022B0004E17510508F49A01A9010E94021FC80196
:1022C000B3D6F82E8115E1F02097D1F0C80123E0B4
:1022D000880F991F2A95E1F7FC01ED5FFE4F2381DE
:1022E000422F50E0C217D10508F4AE018D5F9E4F1A
:1022F000FC0164817581625C7D4FC6010E94021FF2
:102300008F2DDF91CF911F910F91FF90DF90CF9094
:102310000895E5C00895F8C00895A4E0B0E0E3E9A9
:10232000F1E10C94CC1E609155027091560280919F
:1023300057029091580274D411E0643671058105FA
:10234000910500F1F2DCDC01CB010296A11DB11D6B
:1023500089839A83AB83BC8300E010E0980144E05A
:1023600050E0BE016F5F7F4F82E084DF182F811540
:1023700049F0DAD460935502709356028093570265
:1023800090935802812F2496E4E00C94E81EA6E076
:10239000B0E0EDECF1E10C94C61E5B01E090A10110
:1023A000F090A20101E010E0CE0106969C0140E011
:1023B00050E0BA0180E05EDF182F811509F443C0B8
:1023C00067018FEFC81AD80A6091510270915202CA
:1023D000809153029091540223D464367105810593
:1023E000910550F105E010E0CE0101969C0140E01E
:1023F00050E0BA0181E03EDF182F65E070E0C601D1
:10240000C8D09E8198132CC0111551F18DD46093C2
:10241000510270935202809353029093540285E0CC
:102420009E012F5F3F4FF901ACE4B2E001900D92A5
:102430008A95E1F781E015C065E070E0C601A9D09A
:102440009E818913CFCF85E0F70131969E012F5FE2
:102450003F4FD90101900D928A95E1F71111DFCF1D
:1024600080E095E0ECE4F2E0D50101900D929A95C0
:10247000E1F72696EAE00C94E21EA0E0B0E0E3E487
:10248000F2E10C94C61E7C016B015A01B7DE0AE032
:1024900010E0811102C001E010E0C1E0D0E0B6011F
:1024A000C701F5010995811115C021960C171D076B
:1024B0008CF0CC9F9001CD9F300D300D112480E029
:1024C00090E045E34A95F1F70000019682179307E3
:1024D000C1F7E5CFCDB7DEB7EAE00C94E21E0F936B
:1024E0001F93CF93DF93EC018B0147EC51E1C5DFE4
:1024F000811529F04DE851E1B801CE01BEDFDF9131
:10250000CF911F910F910895CF93DF93C091A101B7
:10251000D091A201CE01019625E0FB01DC010190E2
:102520000D922A95E1F765E070E033D088838E81C3
:102530009F81A885B98540914802509149026091D8
:102540004A0270914B0284179507A607B70759F006
:102550008093480290934902A0934A02B0934B02A1
:10256000BC01CD01C2DBDF91CF91089557C9089519
:1025700069D3E6D623D9FCD63FD903D705D7F6DFF2
:1025800019D726D9FBCF8093A4019093A501089574
:102590000895FC01680F791F8FEF41E3E617F707F5
:1025A00009F408959191892728E030E0982F990F38
:1025B00087FF06C0892F842721503040B9F7EECF1E
:1025C000892FFACFCF93DF93EB0186319C4701F53A
:1025D0000E94890A9D81911591F08A7A91E081117A
:1025E00001C090E090935902811539F085E356D2ED
:1025F0001BD880E0DF91CF91089589E2F8CF8091D8
:102600005902811519F085E34FD2F2CF89E2FCCF50
:1026100081E0F0CFCF93DF93EC01FB018581811541
:1026200009F4CAC09E0130572332310508F0AAC010
:1026300081E892E079D8FE01E150F047E232F105FD
:1026400020F4E85BF04E0C94B81E8091810281600A
:102650008093810290C08091820288608093820280
:102660008AC0809181028260F3CF80918102846070
:10267000EFCF809181028860EBCF809182028160F0
:10268000EDCF809182028260E9CF809181028061EA
:10269000DFCF809181028062DBCF809181028064F4
:1026A000D7CF0E946606809181028068D1CF809149
:1026B00081028C60CDCF809182028360CFCF8091E8
:1026C00081028E7FC5CF80918202877FC7CF8091A4
:1026D00081028D7FBDCF809181028B7FB9CF8091A8
:1026E0008102877FB5CF809182028E7FB7CF8091A4
:1026F00082028D7FB3CF809181028F7EA9CF80919E
:1027000081028F7DA5CF809181028F7BA1CF0E9416
:102710006606809181028F779BCF80918102837FB3
:1027200097CF809182028C7F99CF90918102892FDF
:102730008B7F92FF8460877F92FF886089CF809132
:102740008202982F909590FB80F990FB81F986CFBB
:1027500090918102892F8F7B96FF806479CF0E94B0
:10276000660690918102892F97FB87F9805870CF78
:1027700081E00E94980B81E892E00E94960B0E94F3
:10278000660680E0DF91CF91089580E0F2CF9091CE
:102790008102892F8F7E94FF80615ACF90918102B0
:1027A000892F8E7F90FF816053CF90918202892F75
:1027B000877F93FF886052CF81E0E4CF0F931F9310
:1027C000CF93DF93C42FD22FFC0185818115C9F0EF
:1027D00040935C029DD280935A0290935B028C2FAF
:1027E000805E883048F481E0C1FD84E0C0FD880F40
:1027F000C2FD82950E944E04DF91CF911F910F91EF
:10280000089510915C02141333C080915A02909184
:102810005B02FDD18837910558F5CD2FC05E1D179D
:10282000C1F0812F805E883048F481E011FD84E0A2
:1028300010FD880F12FD82950E945304C83048F4A1
:1028400081E0D1FD84E0D0FD880FD2FD82950E9409
:102850004E04802F0E94470481E0D1FD84E0D0FD2A
:10286000880FD2FD8295C83038F60E945304C4CF39
:102870008C2F805E883008F0BFCF81E0C1FD84E0FE
:10288000C0FD880FC2FD8295F0CF0F93FC01CB01F4
:10289000E851FC47E730F10588F5E659F04E0C9415
:1028A000B81E06E221EE41EE6AE17CE787DF80E0B8
:1028B0000F91089507E225EE45EE6BE17CE7F6CF38
:1028C00006E221EE40EE68E17CE7F0CF07E225EE7C
:1028D00044EE69E17CE7EACF06E221EE42EE6CE1EC
:1028E0007CE7E4CF07E225EE46EE6DE17CE7DECF44
:1028F00008E221E045EE6EE17CE7D8CFFB0185815F
:10290000811110925C0281E0D3CF80936202909398
:1029100063020895089508955ADC811103C08091DF
:102920005D020895E0916202F0916302309739F000
:102930000190F081E02D309711F00995089580E025
:102940000895EACF0895E0916202F0916302309712
:1029500031F00280F381E02D309709F00995089558
:10296000A3E0B0E0E6EBF4E10C94CE1E209160020F
:102970003091610228173907B1F08093600290937B
:102980006102E0916202F0916302309761F000848D
:10299000F185E02D309739F023E029838A839B83EA
:1029A000CE01019609952396E2E00C94EA1EA3E07D
:1029B000B0E0EDEDF4E10C94CE1E20915E0230917A
:1029C0005F0228173907B1F080935E0290935F028F
:1029D000E0916202F0916302309761F00084F1852A
:1029E000E02D309739F024E029838A839B83CE0140
:1029F000019609952396E2E00C94EA1E40910001AD
:102A0000509101019A012E5F3F4F485F5F4F80E078
:102A1000F90190812F5F3F4F91118F5F421753074C
:102A2000B9F70895811591F02091000130910101CD
:102A3000F9013296285F3F4F9081981731F0319617
:102A4000E217F307C9F780E0089581E008959C013B
:102A5000FC01329680E09FEF4081461759F0319695
:102A60009F3F19F4411101C0982F8F5F8630A1F765
:102A70009F3F09F40895290F311D97FD3A95F901FB
:102A800062830895FC01329608962191261302C0B4
:102A9000DF011E92E817F907C1F70895682F8091AA
:102AA000000190910101D3CF682F80910001909196
:102AB0000101E8CFE0910001F0910101329686E03A
:102AC00011928A95E9F708950895FECF08958F5FD2
:102AD00080931E0160911B0170911C0180911D016A
:102AE00090911E01F2CF83E080931E0160911B0143
:102AF00070911C0180911D0190911E01E6CFE7CFDE
:102B0000089581E080931E0160911B0170911C016A
:102B100080911D0190911E01D8CFF3CF089591E0CF
:102B2000811101C090E090931D0160911B01709193
:102B30001C0180911D0190911E01C7CF80911D0144
:102B4000089580931C0160911B0170911C0180917C
:102B50001D0190911E01B9CF80911C0108958093B1
:102B60001B0160911B0170911C0180911D019091CE
:102B70001E01ABCF80911B01089508950895FECFEB
:102B8000089508950895F9CF08950F931F93CF9353
:102B9000DF93F7DF95DAF6DF04E612E0C0E0D0E07D
:102BA0008C2F83D9F80181938F0191E0811101C0AD
:102BB00090E0D92BCF5FCA3099F78D2FDF91CF915D
:102BC0001F910F910895E82FF0E0EC59FD4F80819F
:102BD00090E021E030E002C0220F331F6A95E2F757
:102BE0002823392381E0232B09F480E00895411143
:102BF0000DC0E82FF0E0EC59FD4F21E001C0220F9D
:102C00006A95EAF720958081282320830895CF9341
:102C1000DF93EC017DD08C1B9D0BDF91CF9108954C
:102C2000EF92FF920F931F937B018C017DD0970150
:102C3000A801621B730B840B950B1F910F91FF90E2
:102C4000EF90089585B7806885BF85B7806885BF98
:102C500008951F921FB61F9211248F939F93AF93D5
:102C6000BF9380916E02811113C080919D0290915B
:102C70009E02A0919F02B091A0024196A11DB11D9C
:102C800080939D0290939E02A0939F02B093A00216
:102C9000BF91AF919F918F911F901FBE1F9018956C
:102CA0008091A502843031F10E94FA0210926E02E6
:102CB00088E190E020E40FB6F894A8958093600036
:102CC0000FBE2093600083B7817F846083BF83B78A
:102CD000816083BF7894889583B78E7F83BF0FB65A
:102CE000F894A895809160008861809360001092AC
:102CF00060000FBE08950E9466060C94FE0282E0FA
:102D000084BD93E095BD9AEF97BD80936E000895C2
:102D10002FB7F89480919D0290919E02A0919F02FE
:102D2000B091A0022FBF08952FB7F89460919D0233
:102D300070919E0280919F029091A0022FBF0895F2
:102D400078941F921FB61F9211248F939F93AF9375
:102D5000BF9380919D0290919E02A0919F02B0919D
:102D6000A0020196A11DB11D80939D0290939E0229
:102D7000A0939F02B093A002BF91AF919F918F91BA
:102D80001F901FBE1F90189587E797E78093000854
:102D90009093010888E19AE00FB6F894A895809383
:102DA00060000FBE90936000FFCF88E19AE00FB6FD
:102DB000F894A895809360000FBE90936000FFCFB9
:102DC0008EE1489B02C08150E1F7489BFECF0895F9
:102DD000589880E28A95F1F7589A0895FC018BE0A3
:102DE0008A95F1F798E020E080E031E040E14A95F3
:102DF000F1F7880F489B02C08160232742E04A9583
:102E0000F1F7000040E14A95F1F7915079F790E130
:102E10009A95F1F799B132E03A95F1F7000030E177
:102E20003A95F1F7917092272081920F908308953F
:102E3000A1E0B0E0EDE1F7E1ADC719828C017C01C2
:102E4000E60EF11CBDDFCE010196C8DFF8018193CB
:102E50008F01EE15FF05B1F781E09981911180E0B6
:102E60002196E6E0B3C7509A589A08955098589A18
:102E7000E89AE9E6F0E080818C7F808308956150D4
:102E8000770B91E001C0990F6A95EAF7692F90E0FE
:102E900021E0611108C0911591F0589A80E28A955D
:102EA000F1F758980895362F382339F0589A922719
:102EB00030E23A95F1F76695ECCF5898F9CF5898EB
:102EC000EDCFFF920F931F93CF93DF93EC018C0113
:102ED000060F111D8991F82E7BDF68E08F2DCFDF63
:102EE000C017D107B9F7CDB7DEB7E5E070C71F92BD
:102EF0000F920FB60F9211240F931F932F933F93AE
:102F00004F935F936F937F938F939F93AF93BF93F1
:102F1000EF93FF93CF93DF930F92CDB7DEB7198274
:102F20004FDFCE0101965ADF082F069506950695CC
:102F3000282F22952570902F9570920F292F23709E
:102F400096959695920F982797708981892B09F00D
:102F500055C0043008F052C080E18A95F1F7589AC4
:102F6000509A82E08A95F1F700C0589888E0089F4F
:102F700080011124D801AD5FBE4F1696ED91FD91F1
:102F80001897309791F06091A1017091A201149669
:102F90002D913D91260F371F15978D919D91680FAB
:102FA000791F4C9113978C910995F801ED5FFE4FB5
:102FB0006381611549F02091A1013091A2018481C2
:102FC0009581820F931F7DDF03DF80E18A95F1F702
:102FD00058985098589A80E18A95F1F7F801ED5F7A
:102FE000FE4F6081611549F02091A1013091A2014D
:102FF00081819281820F931F1BDFE2DE0F90DF91B0
:10300000CF91FF91EF91BF91AF919F918F917F9160
:103010006F915F914F913F912F911F910F910F9061
:103020000FBE0F901F9018950F931F93CF93DF93B0
:10303000EC0104970CF05EC0F894509A589885E023
:103040008A95F1F700009C2F969595708C2F8570CE
:10305000980F892F837096959695292F93E0CC0F22
:10306000DD1F9A95E1F7280F822F8C2B082FB0DEF9
:1030700000C068E0802F03DF80E18A95F1F7509867
:10308000589A489B30C087E090E048992EC0FE01D6
:10309000ED5FFE4F6381611559F02091A1013091E0
:1030A000A20184819581820F931FC2DE8115F9F000
:1030B00087DE80E28A95F1F75898509A80E18A95E8
:1030C000F1F7CD5FDE4F6881611549F02091A101D4
:1030D0003091A20189819A81820F931FF2DE78DEFE
:1030E000789481E008C000C0CCCF019749F4509A91
:1030F000589A789480E0DF91CF911F910F910895B5
:1031000000C0C3CF089508959B01BA019091A50214
:103110009430D9F48F708093E9009FEF8091E8009C
:1031200085FD06C085ED8A95F1F700009150B1F755
:103130008091E80085FF09C040E050E0C901ACD1B2
:103140008091E8008E778093E800089543E050E096
:10315000BC0182E0D9CFCF93DF93EC01EFDC48E0F4
:1031600050E0BE0181E0D0DF88E0FE01AFE6B2E0D2
:1031700001900D928A95E1F7DF91CF9108958091AA
:10318000A402811107C016D366D38091E200846047
:103190008093E20008951092A4020895B2DC81E0C9
:1031A000BECC6091A10281E0611101C080E09BCCA6
:1031B0009091A50281E0943009F080E06091A10235
:1031C0009ECC42E061EC81E071D242E261EC82E0AF
:1031D0006DD29091A50281E0943009F080E0609179
:1031E000A10275CC8091A702893081F148F4823028
:1031F00009F496C0833009F457C0813041F0089536
:103200008A3009F480C08B3009F468C00895809139
:10321000A602813A09F047C08091E800877F809339
:10322000E8008091AA029091AB02892B59F060E0EE
:1032300080E090E070E07DD18091E8008B77809312
:10324000E800089568E08FE692E0F4CF8091A6024E
:10325000813249F58091AA029091AB02029718F54C
:103260008091E800877F8093E8008091E80082FFEA
:1032700016C02091F3008091F200922F029731F452
:103280008091F100813011F0863019F48091F100C5
:1032900058DC8091E8008B778093E8003BC28091F6
:1032A000A5028111E2CF08958091A602813AD9F753
:1032B0008091AA029091AB02892BA9F78091E80036
:1032C000877F8093E8008091E80080FFFCCF36DCA8
:1032D0008093F1008091E8008E77DECF8091A60286
:1032E000813209F78091AA029091AB02892BD9F61D
:1032F0008091E800877F8093E8000CD28091A8023B
:103300000EDC0C9466068091A602813261F68091F3
:10331000E800877F8093E800FDD18091A9021FCC4F
:103320008091A602813A09F0BECF8091E800877FA4
:103330008093E8008091E80080FFFCCF1BDCC8CFC1
:1033400084B7877F84BF0FB6F894A89580916000FA
:10335000886180936000109260000FBE80E890E06A
:103360000FB6F89480936100909361000FBED5CBA7
:1033700021D271D2E2EEF0E0808184608083789483
:10338000CDC48FE191E0C1CA8091A502853029F4B6
:103390008091A502853011F0AECC089581DCF5DB7B
:1033A0008115B1F38091A302811591F35FD00E9442
:1033B0006606EECF08959A014091AC025091AD029D
:1033C00000C0492F50E043305105C9F070F441303E
:1033D0005105E9F14230510571F48BE390E040E191
:1033E00053E0F90140835183089541325105E9F0DA
:1033F0004232510519F180E090E040E0F2CF482FD1
:1034000050E0813061F04230510561F0ECE0F3E0D2
:103410004115510581F7849190E0AF01E2CFEEEFC5
:10342000F2E0F9CFECEDF2E0F6CF61307105A0F0FB
:1034300011F789E090E04BE353E0D3CF61307105A1
:1034400080F0C9F682E390E04DE553E0CACF82E117
:1034500090E04BE453E0C5CF89E090E042E253E0D6
:10346000C0CF84E490E04FE853E0BBCF80E189BD5A
:1034700082E189BD09B400FEFDCF8091D8008F7D27
:103480008093D8008091E00082608093E00080917A
:10349000E00081FDFCCF0895AF92BF92CF92DF9202
:1034A000FF920F931F93CF93DF936C01EB018A017F
:1034B00050D1F82E811123C00115110539F0F80102
:1034C00080819181C81BD90BC80ED91EA12CB12CAB
:1034D0002097A9F08091E80085FD21C08091E80047
:1034E0008E778093E80001151105A1F0F801808125
:1034F00091818A0D9B1D8083918385E0F82E8F2D0D
:10350000DF91CF911F910F91FF90DF90CF90BF90EF
:10351000AF9008951ED18115E9F2F82EF0CFF60193
:1035200081916F018093F10021978FEFA81AB80A5B
:10353000CFCFFC012091AC023091AD0226173707A6
:1035400020F06115710569F09B0190E021153105AE
:1035500071F491110CC08091E80082FF38C080E0C6
:1035600008959091E8009E779093E800EDCF8091C8
:10357000A5028115C1F18530C1F18091E80083FD7C
:1035800030C08091E80082FDE6CF8091E80080FFA6
:10359000DDCF8091F3004091F200582F21153105C5
:1035A00019F04830510558F091E04830510509F0C4
:1035B00090E04091E8004E774093E800C7CF8191BA
:1035C0008093F100215031094F5F5F4FE7CF809129
:1035D000A502811541F0853041F08091E80083FF1C
:1035E000BACF81E0089582E0089583E00895FC0158
:1035F0002091AC023091AD022617370720F06115FB
:10360000710569F09B0190E02115310571F491116C
:103610000CC08091E80082FF39C080E0089580915D
:10362000E8008E778093E800EDCF8091A5028115A8
:10363000C9F18530C9F18091E80083FD31C08091E6
:10364000E80082FDE6CF8091E80080FFDDCF809129
:10365000F3004091F200582F2115310519F0483040
:10366000510558F091E04830510509F090E0809103
:10367000E8008E778093E800C7CF84918093F100B3
:103680003196215031094F5F5F4FE6CF8091A502FF
:10369000811541F0853041F08091E80083FFB9CF7A
:1036A00081E0089582E0089583E00895982F97308F
:1036B00028F08F708093E90081E008959093E900ED
:1036C000242F762F50E0981731F07091EC00209164
:1036D000ED005091F00021FD02C09F5FE8CF3091D6
:1036E000EB003E7F3093EB003091ED003D7F309357
:1036F000ED003091EB0031603093EB007093EC0003
:103700002093ED005093F0002091EE0027FDE5CFCF
:1037100080E008958091A60287FF13C08091E800A1
:1037200082FF06C08091E8008B778093E8000895BF
:103730008091A5028111F2CF08958091A502811593
:10374000D9F38091E80080FFF8CF8091E8008E7770
:10375000ECCF2091E4003091E50095E6A90120919D
:10376000EC00822F817020FF06C08091E80080FF6E
:1037700006C080E008952091E80022FD1AC08091E3
:10378000A502811589F0853089F08091EB0085FDD7
:103790000FC02091E4003091E50042175307F9F281
:1037A0009150E1F684E0089582E0089583E0089561
:1037B00081E008955FD066D0E0EEF0E08081816026
:1037C0008083E8ED80818F77808319BCA7EDB0E01E
:1037D0008C918E7F8C9380818F7E80831092A40247
:1037E0000895CF93DF9346D04DD0C8EDD0E08881C7
:1037F0008F77888388818068888388818F7D88839C
:1038000019BC1092A5021092A1021092A30210926C
:10381000A202E0EEF0E080818B7F8083888181606E
:10382000888342E060E080E041DFE1EEF0E080810B
:103830008E7F8083E2EE80818160808380818860DA
:103840008083E0EE80818E7F8083888180618883A1
:10385000DF91CF910895E8EDF0E080818F7E808345
:10386000E7ED80818160808384E082BF81E0809386
:10387000A402B7CFE8EDF0E080818E7F80831092C4
:10388000E20008951092DA001092E10008951F926C
:103890000F920FB60F9211242F933F934F935F9384
:1038A0006F937F938F939F93AF93BF93EF93FF9308
:1038B0008091E10082FF0AC08091E20082FF06C091
:1038C0008091E1008B7F8093E10027D28091DA0024
:1038D00080FF18C08091D80080FF14C08091DA006A
:1038E0008E7F8093DA008091D90080FF8FC080E1C5
:1038F00089BD82E189BD09B400FEFDCF81E08093DE
:10390000A5023DDC8091E10080FF18C08091E200BB
:1039100080FF14C08091E2008E7F8093E20080914E
:10392000E20080618093E2008091D8008062809301
:10393000D80019BC85E08093A50233DC8091E100BA
:1039400084FF28C08091E20084FF24C080E189BD0B
:1039500082E189BD09B400FEFDCF8091D8008F7D42
:103960008093D8008091E1008F7E8093E100809168
:10397000E2008F7E8093E2008091E200816080937C
:10398000E2008091A102811509F445C084E0809392
:10399000A5020EDC8091E10083FF27C08091E20048
:1039A00083FF23C08091E100877F8093E10082E064
:1039B0008093A5021092A1028091E1008E7F8093F6
:1039C000E1008091E2008E7F8093E2008091E2002E
:1039D00080618093E20042E060E080E067DE8091F9
:1039E000F00088608093F000D9DBFF91EF91BF91E8
:1039F000AF919F918F917F916F915F914F913F9187
:103A00002F910F900FBE0F901F90189519BC109218
:103A1000A502C1DB77CF8091E30087FF02C083E07E
:103A2000B6CF81E0B4CF1F920F920FB60F92112440
:103A30001F932F933F934F935F936F937F938F9336
:103A40009F93AF93BF93CF93DF93EF93FF93E9EEF1
:103A5000F0E080811091EC008F7010FB112717F9B6
:103A6000182B1082C0EFD0E08881877F88837894FC
:103A70001CD0E9EEF0E010828881886088831F7096
:103A80001083FF91EF91DF91CF91BF91AF919F9103
:103A90008F917F916F915F914F913F912F911F91E6
:103AA0000F900FBE0F901F901895AAE2B0E0EAE5C4
:103AB000FDE173C186EA92E0FC0101962091F100DC
:103AC000208322E08E3A9207B9F78CDB8091E800E0
:103AD00083FF37C08091A6029091A7029A3088F5A3
:103AE000E92FF0E0EF58F04E43C1803889F082387A
:103AF00041F58091AA028F70873018F58093E90014
:103B00008091EB0085FB882780F91092E90006C0C0
:103B10008091A302880F9091A202892B9091E800D6
:103B2000977F9093E8008093F1001092F1008091CC
:103B3000E8008E7722C0811115C08091A8028130E3
:103B400001F18091E80083FF0AC08091E800877F3F
:103B50008093E8008091EB0080628093EB00AA964E
:103B6000E3E037C1823069F78091A802811579F0CE
:103B70001092E9008091E800877F8093E800CADD19
:103B8000E0CF933009F080E08093A302F1CF8091E1
:103B9000AA028F70282F2150263098F68093E900D2
:103BA0002091EB0020FFE4CF933031F48091EB00C3
:103BB00080628093EB00DCCF9091EB00906190935A
:103BC000EB0021E001C0220F8A95EAF72093EA007A
:103BD0001092EA008091EB008860EBCF8111B1CFA9
:103BE0008091A8028F77182F8091E3008078812B35
:103BF0008093E3008091E800877F8093E8008ADD6E
:103C00008091E80080FFFCCF8091E3008068809382
:103C1000E30083E0111101C082E08093A50291CFFF
:103C20008058823008F08DCF8091A8029091A9022F
:103C30008C3D23E0920789F583E08A838AE28983B9
:103C40004FB7F894DE01139620E03EE051E2E32FF7
:103C5000F0E050935700849120FF03C082958F704D
:103C60003F5F8F708A30B8F0895C8D931D922F5F13
:103C7000243169F74FBF8091E800877F8093E80087
:103C80006AE270E0CE01019654DC8091E8008B7707
:103C90008093E80056CF805DE8CF6091AA027091D2
:103CA000AB02AE014F5F5F4F86DBBC01892B09F48D
:103CB00048CF9091E800977F9093E80089819A819E
:103CC00096DCE3CF803809F03CCF8091E800877F15
:103CD0008093E8008091A1028093F10028CF8111A8
:103CE00030CF9091A802923008F02BCF8091E8005D
:103CF000877F8093E8009093A1020CDD8091A10260
:103D0000811529F084E08093A5025BDA1ACF8091B7
:103D1000E30087FDF7CF81E0F6CF0895CF93809140
:103D2000A502811591F08091E900C091EC008F709F
:103D3000C0FBCC27C7F9C82B1092E9008091E8009E
:103D400083FDB3DECF70C093E900CF91089532DDDB
:103D50001092A5020895E8EDF0E0808180618083F3
:103D60008AE18A95F1F700C08091D90081700895A9
:103D7000EE0FFF1F0590F491E02D09942F923F92D2
:103D80004F925F926F927F928F929F92AF92BF926B
:103D9000CF92DF92EF92FF920F931F93CF93DF9317
:103DA000CDB7DEB7CA1BDB0B0FB6F894DEBF0FBE74
:103DB000CDBF09942A88398848885F846E847D84C1
:103DC0008C849B84AA84B984C884DF80EE80FD80C3
:103DD0000C811B81AA81B981CE0FD11D0FB6F89439
:103DE000DEBF0FBECDBFED010895FB01DC0104C0B5
:103DF0008D910190801921F441505040C8F7881BE3
:103E0000990B0895FB01DC0102C001900D92415015
:103E10005040D8F70895F999FECF92BD81BDF89A28
:103E2000992780B50895A8E1B0E042E050E020C0B5
:103E3000262FF999FECF92BD81BDF89A019700B463
:103E4000021639F01FBA20BD0FB6F894FA9AF99A03
:103E50000FBE08950396272FECDFEADF252FE9DF59
:103E6000242FE7CF0196272FE4DFE2CFDC01CB013F
:103E7000FC01F999FECF06C0F2BDE1BDF89A31967A
:103E800000B40D9241505040B8F70895F894FFCF18
:103E90005F13CE136713311335136B1339136F137D
:103EA0007B134513C71349137F134D138313A813B3
:103EB00051138713AF1357138D1395133D137313BA
:103EC000411377135B1391139F13B813C5132B136F
:103ED0006313D5136014661451145A146C147214BD
:103EE0007814751D9B1DA11D9B1DA11DEE1D101E8F
:063EF000A11D621E6F1E01
:103EF6002002010000000100000000000000050192
:103F0600000000040600000000000000000100ACF4
:103F160015AB1883188218A618E200E900EA00B566
:103F260000B600B700CD008301CC008A019201944F
:103F3600012102230224022502260227022A02B3B5
:103F460000B4006F0070009F01CB019F02A002E247
:103F560000E900EA00B500B600B700CD008301CC49
:103F6600008A0192019401210223022402250226DD
:103F76000227022A02B300B4006F0070009F01CB33
:103F8600019F02A002F4F5F6F73133329497C63456
:043F9600353E0200B2
:00000001FF
