:100000004BC5000066C5000064C500000C94B02913
:1000100060C500005EC500005CC500005AC5000058
:1000200058C5000056C500000C948B260C9473270D
:100030000C94F7134EC500004CC500004AC50000E3
:1000400048C5000046C5000044C5000042C5000088
:1000500040C500000C9467263CC500003AC500006E
:1000600038C5000036C5000034C5000032C50000A8
:1000700030C500002EC500002CC500002AC50000B8
:1000800028C5000026C5000024C5000022C50000C8
:1000900020C500001EC500001CC500001AC50000D8
:1000A00018C5000016C5000014C5000005010902AE
:1000B000A10185020901A1000509190129081500FE
:1000C0002501950875018102050109300931158165
:1000D000257F95027508810609381581257F9501D0
:1000E00075088106050C0A38021581257F95017572
:1000F000088106C0C005010980A101850319012AF4
:10010000B700150126B700950175108100C0050CD8
:100110000901A101850419012AA002150126A002E6
:10012000950175108100C005010906A10105071997
:10013000E029E715002501950875018102950175F3
:100140000881010507190029FF150026FF00950603
:100150007508810005081901290515002501950577
:1001600075019102950175039101C009023B0002DE
:100170000100A0FA09040000010301010009211196
:100180000100012244000705810308000109040160
:10019000000103000000092111010001227B00077A
:1001A00005820320000112010002000000086532F0
:1001B00000000100010200011603480065006C0008
:1001C00069007800200042006500740061000000B2
:1001D0001403590075007300680061006B006F0024
:1001E00062006F0000000403090400AE00AF0000CD
:1001F000000000003E5B4F5B3E003E6B4F6B3E00DD
:100200001C3E7C3E1C00183C7E3C18001C577D5751
:100210001C001C5E7F5E1C0000183C180000FFE7FD
:10022000C3E7FF00001824180000FFE7DBE7FF002A
:1002300030483A060E00262979292600407F050518
:100240000700407F05253F005A3CE73C5A007F3EAF
:100250001C1C0800081C1C3E7F0014227F22140076
:100260005F5F005F5F0006097F017F000066899580
:100270006A0060606060600094A2FFA294000804BD
:100280007E04080010207E20100008082A1C0800A8
:10029000081C2A0808001E10101010000C1E0C1E4E
:1002A0000C0030383E383000060E3E0E06000000CE
:1002B0000000000000005F000000000700070000D1
:1002C000147F147F1400242A7F2A12002313086449
:1002D0006200364956205000000807030000001C49
:1002E000224100000041221C00002A1C7F1C2A0021
:1002F00008083E0808000080703000000808080860
:1003000008000000606000002010080402003E5158
:1003100049453E0000427F4000007249494946007D
:100320002141494D33001814127F100027454545DF
:1003300039003C4A49493100412111090700364939
:1003400049493600464949291E00000014000000B2
:10035000004034000000000814224100141414145A
:1003600014000041221408000201590906003E4110
:100370005D594E007C1211127C007F4949493600BC
:100380003E41414122007F4141413E007F49494970
:1003900041007F09090901003E41415173007F0876
:1003A00008087F0000417F4100002040413F0100DC
:1003B0007F08142241007F40404040007F021C0221
:1003C0007F007F0408107F003E4141413E007F09CD
:1003D000090906003E4151215E007F0919294600A6
:1003E00026494949320003017F0103003F40404054
:1003F0003F001F2040201F003F4038403F00631453
:10040000081463000304780403006159494D430054
:10041000007F414141000204081020000041414199
:100420007F000402010204004040404040000003FD
:10043000070800002054547840007F2844443800C6
:10044000384444442800384444287F0038545454E5
:10045000180000087E09020018A4A49C78007F08F8
:100460000404780000447D4000002040403D00002E
:100470007F102844000000417F4000007C04780485
:1004800078007C0804047800384444443800FC18A0
:100490002424180018242418FC007C0804040800F4
:1004A00048545454240004043F4424003C40402059
:1004B0007C001C2040201C003C4030403C00442874
:1004C000102844004C9090907C004464544C4400AC
:1004D00000083641000000007700000000413608A7
:1004E00000000201020402003C2623263C00030710
:1004F0001F7FFFFFFEF8F0C020F8FEFFFE79271FE8
:100500007FFFFFFEF8F0C020F8FEFFFF7F3F3F7F38
:10051000FFFEF8F0C000000000FFFFFFFFFFFF003C
:10052000000000000000FF7F7F7FBFBFC0C0C0E0B1
:10053000E0E0E0F0F0F0F878787C3C3CFEFEFEFF76
:10054000FFFF000000000000000000008080BFBF2F
:10055000DFDFEFEF0003071F7FFFFFFFFEF8E0C0C4
:10056000E0F8FEFFFFFF7F1F07030000E0F0F0F060
:10057000E0ECEEF7F37020007C7C7C7E007E7E7EDB
:100580007F7F7F000080C0E07E5B4F5BFEC000008D
:10059000C000DCD7DEDEDED7DC00C00000000000DB
:1005A000000000000000000000000000000000004B
:1005B0000000C1F3CFBF7FFFFFFCFBE7810000001D
:1005C0000080E3CF3FFFFFFFFCFBE781000000005E
:1005D00081E7FFFFFFFF3C0000FFFFFFFFFFFFF889
:1005E000F8FC7C7E7E3EFEFFFFFFFFFFF7F7F7FB88
:1005F000FB7D7D7DBEBEBEDFDFE0E000FFFFFFFFD5
:10060000FFFF00FCFC7C7E7E3E3E1F1F1F0FFFFF96
:10061000FFFFFFFF000000000081E7FFFFFFFFFF7B
:10062000FFFFFFFFE7810000000000000F1F3F7F7A
:100630007F7F7F7F3F1E0C001F1F1F3F003F3F3FFC
:100640007F7F7F00307B7F7830202030787F3B00B9
:1006500003000F7F0F0F0F7F0F000300000000004B
:1006600000000000000000000000000000006070BA
:100670007C7F7F7F7F1F0601030F3F7F7F7E7C7C17
:100680007E7F7F7F1F0601070F3F7F7F7E7C7C7E02
:100690007F7F3F0F03000000007F7F7F7F7F7F0011
:1006A0000000000000007F7F7F7F7F7F7D7D3D3EDB
:1006B0001E1F1F1F0F0F0707070303007F7F7F7F8A
:1006C0007F7F7C7C7C7C7C7C7C7C7C7C7C007F7FDA
:1006D0007F7F7F7F004070787E7F7F7F3F0F0301A9
:1006E000030F3F7F7F7F7E78704000000000000096
:1006F00000000000000000000000000000000000FA
:1007000000000000000000000000000000000000E9
:1007100000000000000000000000000000000000D9
:1007200000000000000000000000000000000001C8
:1007300001010101010101010202020202020202A1
:100740000203030303030303030404040404040473
:100750000505050505060606060607070707070837
:10076000080808090909090A0A0A0B0B0B0C0C0CEA
:100770000D0D0D0E0E0E0F0F0F1010111111121284
:1007800013131414151516161717181819191A1A01
:100790001B1B1C1D1D1E1E1F202021222223242462
:1007A000252626272829292A2B2C2D2D2E2F30319E
:1007B0003232333435363738393A3B3C3D3E3F40B0
:1007C0004142434445464748494A4C4D4E4F50519B
:1007D0005354555658595A5B5D5E5F616264656655
:1007E00068696B6C6D6F7072737577787A7B7D7EDC
:1007F0008082838587888A8C8E8F91939596989A2C
:100800009C9EA0A2A3A5A7A9ABADAFB1B3B5B7BA43
:10081000BCBEC0C2C4C6C9CBCDCFD1D4D6D8DBDD17
:10082000DFE2E4E7E9EBEEF0F3F5F8FAFDFF00DADA
:100830000281FFD9F1DB20A4A62EAF00A0C0D30017
:1008400000A1C8D30000AED580A81F408D142000A1
:10085000204C454400808182838485868788898AEC
:100860008B8C8D8E8F9091929394A0A1A2A3A4A51E
:10087000A6A7A8A9AAABACADAEAFB0B1B2B3B4C095
:10088000C1C2C3C4C5C6C7C8C9CACBCCCDCECFD0E0
:10089000D1D2D3D400202020200053435220002066
:1008A00020202000434150200020202020004E55D1
:1008B0004D20000A00556E646566696E65640041EE
:1008C000646A757374005261697365004C6F776573
:1008D000720044656661756C7400204C61796572C4
:1008E0003A20000A000A00959600B5B600979800D5
:1008F000B7B80035001E001F0020002100220000B4
:10090000002B0014001A0008001500170000002931
:100910000004081604070109020A0000004A001D2D
:10092000001B000600190005002F004C00E000E24B
:1009300000E1002152E3002C002E002700260025B4
:10094000002400230000002D00130012000C0018EA
:10095000001C000000340033180F140E110D120B90
:100960000000003100380037003600100011003060
:10097000004F00520051005000225228002A00016E
:100980000001000100010001000100000035001E0F
:10099000001F00200021005600000001003A003B2B
:1009A000003C003D003E0000003900400041004294
:1009B00000430044000100010001000100010001AA
:1009C00000010001004900010001000100010001D7
:1009D0000000004D00270026002E002E022D0200F0
:1009E00000310030004F0052005100500000000163
:1009F000004B004E000100010045000100AE00A9BF
:100A000000AA00AB0001000100010001000100018B
:100A10000001000100010000003A003B003C003DE5
:100A2000003E003F000000007C01000100010001C9
:100A30000001000000037C01000100010001000131
:100A4000001570010001000100010001000100011A
:100A5000000100010001000100010001000000454B
:100A6000004400430042004100400000000100013A
:100A70000001000100010001000000277825782313
:100A800078207801000100147028782678247821D5
:100A9000780100010001000011241FBECFEFDAE051
:100AA000DEBFCDBF12E0A0E0B1E0E2E6F8E502C0B3
:100AB00005900D92A23DB107D9F727E0A2EDB2E073
:100AC00001C01D92A734B207E1F70E94B9200C942F
:100AD000BD2B96CAA0E0B0E0E0E7F5E00C94D92A7F
:100AE00090913C01981304C090914607903241F1D7
:100AF00080933C0190E290934607C82ED12C7D0153
:100B00001092450705E417E0ED01B601C7012AE0A0
:100B100030E040E050E00E94252B605D603339F406
:100B2000209729F0CD28CE28CF2809F460E2F801DB
:100B300062938F0169017A012196C330D10529F7AB
:100B400082E497E0CDB7DEB7E8E00C94F52A809315
:100B5000F9069093FA0608958093FB069093FC069D
:100B6000089521E030E002C0220F331F8A95E2F79A
:100B70008091FB069091FC06822B932BEDCF21E018
:100B800030E002C0220F331F8A95E2F7209530959E
:100B90008091FB069091FC0682239323DDCF9A304F
:100BA00090F5873080F5E82FF0E087E0989FE00D22
:100BB000F11D112451E0E1FD54E0E0FD550FE2FD8F
:100BC000529583E0F695E7958A95E1F7EE0FFF1FC2
:100BD000EE0FFF1FE154F94F20E030E070E041914B
:100BE000DF01CB01022E02C0969587950A94E2F7A9
:100BF0008695880B8427852384278E932F5F3F4F0C
:100C00002430310561F70895292F9A3070F5873027
:100C100060F590E037E0239F800D911D1124682F2F
:100C2000677023E0969587952A95E1F7FC01EE0F12
:100C3000FF1FEE0FFF1FE154F94F40E050E080E04E
:100C4000219130E0062E02C0369527950A94E2F7EE
:100C50002170042E01C0220F0A94EAF7822B4F5F05
:100C60005F4F4430510561F7089580E00895E091A9
:100C7000020790910107E91302C080E008959F01E7
:100C800057E0E59FF0011124ED5FF84F51815613B5
:100C900006C05081581303C05581541305C02F5FFF
:100CA0003F4FF901E770E7CF81E008958091020797
:100CB00020910107281301C0089501968770FACF8B
:100CC0009091FD06809589238093FD06282F27703B
:100CD00061F4891751F09091FF0692FF06C0869546
:100CE000869586954CDF1092FD0608958095982F85
:100CF0008091F60689238093F6060895972F7A301F
:100D0000C8F46730B8F48330C0F470E027E0929FF5
:100D1000600D711D112496E4899F600D711D1124D1
:100D2000FB01EE0FFF1FED50F74F85919591282F96
:100D3000822F089520E090E0FBCF21E0FCCF803EA1
:100D40009105D1F1C8F48133910509F481C048F4CB
:100D50008932910509F471C08A32910509F47FC086
:100D6000089589339105E1F082389105C9F0853302
:100D7000910509F45DC00895843E9105D1F148F4D0
:100D8000823E910531F1833E910541F181EE90E083
:100D90000895863E9105C1F1873E9105F1F10895D0
:100DA0002091FE06237009F064C02091FF0623FF06
:100DB00014C089E290E008952091FE0620FD45C010
:100DC0003091FF0630FF09C024FD24C083EE90E07F
:100DD00008952091FE0622FDF7CF08952091FE068A
:100DE00022FD44C03091FF0630FD43C024FFF5CF03
:100DF00011C02091FF0621FFF0CF8091FE0684FDF7
:100E000009C087EE90E008952091FE0623FFE5CF0C
:100E100024FFF7CF80E090E008952091FE0623FDA7
:100E20002BC03091FF0631FFE1CF84EE90E00895B2
:100E30002091FE0625FFD1CFBCCF2091FE0625FDD7
:100E40001EC02091FF0623FFC8CF89E390E00895DC
:100E50002091FE0626FFC1CF8AE290E008952091FE
:100E6000FE0626FFBACF81E390E0089582EE90E07F
:100E7000089580EE90E0089586EE90E0089585E371
:100E800090E008959091FE0692FF10C041E0282F57
:100E90002471243009F040E031E0282F28712830F7
:100EA00009F030E0431711F02CE0822793FF10C0C7
:100EB00041E0282F2471243109F040E031E0282F4F
:100EC0002871283109F030E0431711F02CE0822717
:100ED0003091FF0630FF10C051E0282F21712130E2
:100EE00009F050E041E0282F2871283009F040E057
:100EF000541711F029E0822731FF10C041E0282F5C
:100F00002171213109F040E031E0282F287128318A
:100F100009F030E0431711F029E0822794FF02C066
:100F200083FD877E08950F931F93CF93DF9307DF91
:100F3000EC01D23508F04DC0D03508F0C3C0C03E3A
:100F4000D10530F5CD3CD10508F09AC0C83AD1059D
:100F500078F4C53AD10508F090C0C130D10599F1B7
:100F6000CE010497813A910570F1C0E0D0E02BC02A
:100F7000CE01885A91094B97C0F7C85AD0E0CC0FE0
:100F8000DD1FCA59DD4F0990D881C02DD4641BC024
:100F9000D03490F4D03208F0A8C0C83ED10598F003
:100FA000CE0191509F3108F78D2F6CDF082F8C2FC9
:100FB00090E0C5DE902B54C08C2F90E0C0DEDF7037
:100FC000C82FD92BD06ACE01DF91CF911F910F91FD
:100FD0000895C03882E5D807B8F5C03682E5D8074D
:100FE00008F056C0C03482E5D807C8F4C03282E5A4
:100FF000D80708F047C08C2F8695869520E2829FFF
:10100000C0011124C37021E030E002C0220F331F61
:10101000CA95E2F7E901C82BD92BDD68D4CF8C2F14
:1010200086958695877020E2829FC0011124C37047
:1010300021E030E002C0220F331FCA95E2F7E90138
:10104000C82BD92BDC68BFCFC03C82E5D80750F451
:101050008C2F8F71C03AD24580F5982F84EF906A1B
:10106000EC01B1CFCE01805C9245809708F07DCF36
:10107000DC2FDF71C0EFD06AA6CFA497D064A3CFD6
:10108000D065A1CF8C2F8F71D82FC1EFD06A9BCFA5
:101090008C2F86958695877020E2829FC00111244F
:1010A000C37021E030E002C0220F331FCA95E2F77F
:1010B000E901C82BD92BDA6886CFE4DEC0E0D82F4F
:1010C000D06281CF8C2F8F71DDDE93E0CC0FDD1FDE
:1010D0009A95E1F7DF70282F84FF04C090E1899F83
:1010E00090011124C22FD0696ECF8D2F8F71CADE6F
:1010F000082F8C2F90E023DE902BEC01E1CFCF92D4
:10110000DF92FF920F931F93CF93DF936C010091B7
:10111000FB061091FC068091F9069091FA06082BC7
:10112000192BCFE0D0E081E090E00C2E02C0880FB8
:10113000991F0A94E2F780239123892B61F4219768
:1011400090F7F12C8F2DDF91CF911F910F91FF9090
:10115000DF90CF900895FC2EB6018C2FCFDDE3DE1B
:10116000019769F3EFCF1F93CF93DF93FC012581A4
:10117000C081D181CE01211571F0611561F0BFDF11
:10118000182F682FCE010BDDBE01812FB7DDDF9157
:10119000CF911F91089538DD182FF6CFCF93DF93AD
:1011A000EC01ADDFBE01AADDBEDEDF91CF91089577
:1011B000FC012481211599F080819181EFDF282F96
:1011C00092959F70963099F060F4925F9F70923084
:1011D00030F4203FB1F038F481E0283E38F080E070
:1011E00008959A5FF3CF81E0243FC9F7089591E015
:1011F000213F09F090E081E0283E08F080E0892B53
:10120000089581E0089580E00895F894E82FE2952C
:10121000EF70F0E041A18F7021E001C0220F8A95AC
:10122000EAF7922F9095942391A392A1822F892B74
:1012300082A378940895CF92DF92EF92FF921F934A
:10124000CF93DF93462F172FE82FF0E0E25DF84FA2
:1012500071110CC0E4918E2F7E2F6E2FDF91CF91F4
:101260001F91FF90EF90DF90CF900895F491EF2FB2
:1012700086E0689FE00111242FEF30E0CE01B90134
:101280000E94BB2ADB01CA01880F991F65E56A9F8E
:10129000A0016B9F500D1124841B482F440F480F51
:1012A000C901811B9109F89F7001F99FF00C11246D
:1012B0008F2D149FB0011124672F70E06901C61AA9
:1012C000D70AB601F69F6001F79FD00C1124A33016
:1012D000B10549F1B901641B7109AB01149FB0015B
:1012E000159F700D1124672F70E0261B370BF29F9E
:1012F000A001F39F500D1124752FCC3FD34050F423
:10130000A130B105A1F0129709F0A7CFEF2D852FDD
:101310007F2FA3CFA430B10569F0169709F49DCFB4
:101320007F2D8D2D9ACF7D2DEF2D8F2F96CF7F2F57
:10133000ED2D93CFE52F7F2DF8CF982F8091AE061E
:10134000811529F081E0903208F080E0089581E075
:101350009034FACF9C0180E090E0269F020E811D20
:10136000369F800D911D1124830F911D08952695A0
:10137000E22F26FDE0959E2F9F7026FD9F5FE6954C
:10138000E695E695E670F0E0EE5BFE4F3181399F21
:10139000302D912D112432953F709295907F392BED
:1013A0009081930F27FD919597FD9195990F292F86
:1013B000382F239F020E20E0211D1124822F089533
:1013C000E42FF0E0EE0FFF1FE057FE4F6081621B3D
:1013D00008950F93CF93DF93C72FD82F652F607891
:1013E00021153105E1F0F90137FF04C0EE27FF2791
:1013F000E21BF30BBA016E0F7F1F57FD17C04E1B88
:101400005F0BE0E25E9F902D4E9F802D912911246D
:101410000E94122B80E2861B682F37FD6195600FBA
:101420007C2F8D2FDF91CF910F910895CB0160E23A
:10143000969F902D869F802D91291124BF01641BBA
:10144000750B0E94122B80E6E6CFEF92FF920F936E
:101450009701201B3109A90151114FEF342F30950D
:10146000282F230F08F42FEF822F640F0F91FF9086
:10147000EF900895EF92FF920F939701201B31098F
:1014800031112FEF2095382F320F08F43FEF832FC3
:101490000F91FF90EF9008958091C8038160809331
:1014A000C80308953091AE06311521F080329105C0
:1014B0002CF008958032910514F08097D9C20895D8
:1014C000FF920F931F93CF93DF93182F062FF42EC5
:1014D000C0E0D0E02F2D402F612FCE01E3DF219619
:1014E000C034D105B9F7CDB7DEB7E5E00C94F82AE2
:1014F0009DE0899F802D1124982F935F913408F0EF
:1015000090E42091AE06211104C0803228F480E2DC
:101510000895913208F090E20895EF92FF920F93B0
:101520001F93CF93DF937C0180910201E1DFC82FED
:10153000192F6091F2066695669521E0620F08F416
:101540006FEF8091C4039091C50304DF082FD0E0B2
:10155000812FC11730F0F1DECDB7DEB7E6E00C9495
:10156000F72AFE01E05FFD4F8081909103018923FE
:1015700079F06091EF067091F0068091F106202FCE
:101580004C2FF701099557DE472F282FCE018ADF10
:101590002196DECFAAE0B0E0E0EDFAE00C94CF2A8D
:1015A000682E6B837C8380910201A2DF9A83309046
:1015B000C90390E08F831886880F991F80579E4F2C
:1015C0006C016D821E828A819F81981728F0B5DE9A
:1015D0002A96E2E10C94EB2AEF81F885E05FFD4F5B
:1015E0008081909103018923F1F02090EF06809192
:1015F000F00689838D819E8186539C4F4C01762C09
:1016000010E07314C8F02091F106129F010E10E053
:10161000111D1124622D7981812F0DDE472F282F76
:101620008F8198853FDF8F81988501968F8398877A
:1016300082E0C80ED11CC7CFF40181914F01F601A1
:101640009081492E481A5508A180F4018781A81A73
:10165000BB08449CC001459C900D900D1124AA9C90
:101660009001AB9C300D300D1124820F931F082F79
:10167000823091051CF14FEF813E2EE192073CF440
:10168000AC0175E0569547957A95E1F7485F51E0D2
:10169000252F240F3327331F35952795022F229F9F
:1016A000B001239F700D700D11248617970710F558
:1016B000422F4150451760F75150052F6091F206B7
:1016C00021E0620F08F46FEFF401EE0FFF1FE95CF9
:1016D000F340858996893EDE7C019501A201622D49
:1016E0007981812FEB81FC810995262E7983182F32
:1016F000739487CF2F3F11F3522F5F5FDBCFA0E0B2
:10170000B0E0E5E8FBE00C94DA2A182F80910101A3
:10171000811324C09091EE0693702091000130E077
:1017200081E09217130609F480E080930401809110
:10173000F30690910301981731F08093030140E084
:1017400060E080E0BDDE173058F4E12FE150E63074
:10175000E8F4F0E0E154F44D0C94472B81E0E5CF40
:101760001F3F09F490C080E0909102019F5F909329
:1017700002018111B1C082E080933B01809104019C
:101780008111AAC01111A8C083E0A4C080910401F6
:10179000811549F340E060E080E092DEE4CF809183
:1017A0000201A6DEC82F092F6091EF067091F006A6
:1017B0008091F10640DDF62EE72ED82ED0E00C17F2
:1017C00009F018F4802FB9DDCFCFFE01E05FFD4FA7
:1017D000808190910301892329F02D2D4E2D6F2DAD
:1017E000CE0160DE2196EBCF87EB99E096DEBCCF91
:1017F00080EE99E0FBCF809102017ADEC82FD92ECE
:101800006091F20666958091C4039091C503A2DDB4
:10181000082FD0E0CE01880F991F80579E4F7C0182
:101820008D2DDC1681F278F2FE01E05FFD4F8081A4
:1018300090910301892399F0F70121812052330B04
:1018400040814057550B6091EF067091F0068091F2
:10185000F106BFDDF0DC472F282FCE0123DE82E02A
:10186000E80EF11C2196DCCF65E27AE080E092DEA2
:101870007BCF21E03091C903321B08F430E0832F85
:101880006AE37AE0F4CF9091C503A091C603B091CA
:10189000C703892F9A2FAB2FA69597958795A69565
:1018A00097958795837090E0A0E0B0E08230910535
:1018B000A105B105B1F083309105A105B105A1F0F5
:1018C00040E060E010979040814081F464E180E066
:1018D000F7DD82E080933B01CDB7DEB7E7E00C9403
:1018E000F62A44E160E0F3CF44E164E184E1F0CF23
:1018F000CF93C82F811581F08091670681110CC0AC
:10190000FEDE109201018091EE068370809300014B
:1019100067D383E080933B01C0936706CF9108951E
:101920008091EE0691E089278093EE0610923B01AC
:10193000B3CD9091EE06937071F0873008F086E099
:10194000880F880F9091EE069370892B8093EE0696
:1019500010923B01A1CD08958091EE068695869563
:101960008F5F873008F081E0E4CF8091EE068695A6
:101970008695815009F486E0DCCF9091EE06937055
:1019800051F08093EF066093F006473908F046E97E
:101990004093F10681CD0895EEEEF6E0818190E06E
:1019A000438162810896E9CFEEEEF6E081814381C2
:1019B00062818850990BE1CFEEEEF6E0628120E182
:1019C000620F08F46FEF8181438190E0D6CFEEEE95
:1019D000F6E0628120E1621B08F460E081814381CE
:1019E00090E0CBCFEEEEF6E0438120E1420F08F429
:1019F0004FEF8181628190E0C0CFEEEEF6E043814F
:101A000020E1421B08F440E08181628190E0B5CF83
:101A10002091F20630E1230F08F42FEF2093F20615
:101A20003BCD2091F20630E1231B08F420E0209307
:101A3000F20632CD81E090E02091F3062F3F09F0CD
:101A400080E0805C9E4FFC0180818093F30624CD72
:101A500081E090E02091F3062F3F09F080E0805C68
:101A60009E4FFC0180818093F30616CD539A089512
:101A7000FC01EE0FFF1FE80FF91FE750FD4F6183D8
:101A8000408322830895FC01AC014B5F5F4F8FEFD1
:101A900061E39191892728E030E0982F990F87FF23
:101AA00009C0892F862721503040B9F7E417F50780
:101AB00081F70895892FF7CF382F25EB3203C00126
:101AC000112497FF04C080589109892F08958058E8
:101AD0009F4FFBCF8091E50680FD14C081FD14C0AF
:101AE00082FD16C08091E406811581F08E3180F46C
:101AF00020E5829FC00111246EE170E00E94122B4C
:101B0000862F089584E1089588E2089588E0089575
:101B100080E508958091E50680FD17C081FD17C01E
:101B200082FD19C08091E306811599F0883298F4FE
:101B300028E0829FC001112468E270E00E94122B0D
:101B40006115710551F0862F089562E0FCCF64E0C5
:101B5000FACF61E0F8CF68E0F6CF81E00895809198
:101B6000AD06811571F0E091B506F091B60630979B
:101B700039F00190F081E02D309711F0099508952A
:101B800080E00895A3E0B0E0E8ECFDE00C94DF2AEB
:101B90002091F5023091F60228173907B1F08093B1
:101BA000F5029093F602E091B506F091B6063097F3
:101BB00061F00084F185E02D309739F023E029832E
:101BC0008A839B83CE01019609952396E2E00C94CB
:101BD000FB2AA3E0B0E0EFEEFDE00C94DF2A2091B9
:101BE000F3023091F40228173907B1F08093F30221
:101BF0009093F402E091B506F091B606309761F04B
:101C00000084F185E02D309739F024E029838A8320
:101C10009B83CE01019609952396E2E00C94FB2A62
:101C20009C01FC01329680E09FEF4081461759F0FD
:101C300031969F3F19F4411101C0982F8F5F863074
:101C4000A1F79F3F09F40895290F311D97FD3A959B
:101C5000F90162830895FC013296089621912613BA
:101C600002C0DF011E92E817F907C1F708958091BD
:101C7000060108952FB7F8946091EF027091F00279
:101C80008091F1029091F2022FBF08958091AD06EC
:101C9000811539F0EFDF462F572FBC01CB01BA0178
:101CA0000895E8DFDC01CB014091AF065091B0060A
:101CB0006091B1067091B206480F591F6A1F7B1FD1
:101CC000EDCF87E797E7809300089093010888E1BC
:101CD0009AE00FB6F894A895809360000FBE909399
:101CE0006000FFCF0895FC012091E5023091E602EB
:101CF0002617370748F06115710529F49091E8001F
:101D00009E779093E8009B0190E02115310541F406
:101D1000911106C08091E80082FF32C080E00895F2
:101D20008091F4038115C1F18530C1F18091E80003
:101D300083FD30C08091E80082FDECCF8091E80007
:101D400080FFE3CF8091F3004091F200582F2115DE
:101D5000310519F04830510558F091E048305105EF
:101D600009F090E04091E8004E774093E800CDCF35
:101D700081918093F100215031094F5F5F4FE7CF90
:101D80008091F403811541F0853041F08091E800A5
:101D900083FFC0CF81E0089582E0089583E0089535
:101DA000982F9093E900891771F07091EC002091C1
:101DB000ED005091F00021FD09C09F5F973089F739
:101DC0008093E9000895762F242F50E03091EB00A6
:101DD0003E7F3093EB003091ED003D7F3093ED007E
:101DE0003091EB0031603093EB007093EC00209366
:101DF000ED005093F0002091EE0027FDDECF089516
:101E00008091DF0287FF13C08091E80082FF06C047
:101E10008091E8008B778093E80008958091F40327
:101E20008111F2CF08958091F4038115D9F3809147
:101E3000E80080FFF8CF8091E8008E77ECCF20910A
:101E4000E4003091E50095E6A9012091EC00822F95
:101E5000817020FF06C08091E80080FF06C080E00E
:101E600008952091E80022FD1AC08091F4038115A5
:101E700089F0853089F08091EB0085FD0FC02091BD
:101E8000E4003091E50042175307F9F29150E1F672
:101E900084E0089582E0089583E0089581E0089544
:101EA000CF93DF93C8EDD0E088818F7E8883E7ED04
:101EB000F0E080818160808384E082BF81E0809354
:101EC000DE0288818E7F8883E2EE10821092DA0033
:101ED000A1EEB0E01C9288818F778883888180682A
:101EE000888388818F7D888319BC1092F4031092B7
:101EF000DD021092F3031092DC02A0EE8C918B7F36
:101F00008C9388818160888342E060E080E048DFD4
:101F1000A1EEB0E08C918E7F8C93E2EEF0E08081B8
:101F200081608083808188608083E0EE80818E7F05
:101F30008083888180618883DF91CF910895E8ED67
:101F4000F0E080818E7F80831092E2001092DA00B0
:101F50001092E100A0EEB0E08C9181608C938081C2
:101F60008F77808319BCA7ED8C918E7F8C938081B5
:101F70008F7E80831092DE020895A0E0B0E0E3EC53
:101F8000FFE00C94D72A7C016B015A0180919006E6
:101F90000AE010E08A3010F001E010E0C1E0D0E08B
:101FA000B601C701F5010995811115C021960C17DD
:101FB0001D078CF0CC9F9001CD9F300D300D11246A
:101FC00080E090E045E34A95F1F700000196821722
:101FD0009307C1F7E5CFCDB7DEB7EAE00C94F32A5B
:101FE0003BB1377F2BB128604FB7F89489EF92E06F
:101FF000FC010196508168E02BB9000000C057FF3A
:102000003BB9550F000000C000C000C03BB900C084
:102010006A9591F753E0893B950751F74FBF8FE5DC
:1020200094E00197F1F700C0000008950F931F930B
:10203000CF93DF93EB018A019091F403943059F52B
:102040008093E9008FEF9091E80095FD06C095ED33
:102050009A95F1F700008150B1F78091E80085FF73
:102060001AC0EDDE811112C08091E80085FD06C026
:102070008091E8008E778093E800F3CF8881809389
:10208000F1000150104011F02196EECF8091E80050
:102090008E778093E800DF91CF911F910F91089583
:1020A000CF93DF93EC0148E050E0BC0181E0BEDF5C
:1020B00088E0FE01A7EEB2E001900D928A95E1F76B
:1020C000DF91CF91089546E050E0BC0182E0AECFB1
:1020D00043E050E0BC0182E0A9CF9091FF0692FB63
:1020E000222720F9281779F080FB92F99093FF06B8
:1020F0006091FE067091FF0684E090E00E94B92B8B
:1021000082E00C94600608958091F6069091000795
:10211000892B9091F706911589F0892B90E026ED97
:1021200032E0F90140812F5F3F4F41119F5F42E054
:102130002C3D3407B1F791111092F7068093D40229
:1021400048E050E067EB76E084ED92E00E94562B89
:10215000892BB9F088E0E4EDF2E0A7EBB6E001905E
:102160000D928A95E1F7E091B506F091B6063097A9
:1021700041F00280F381E02D309719F084ED92E078
:1021800009950895811531F09091F606982B90935A
:10219000F606BACF0895811519F00E947606B4CFDD
:1021A0000895CF92DF92EF92FF921F93CF93DF9328
:1021B00000D000D0CDB7DEB7C0906C06D0906D06D1
:1021C000E0906E06F0906F0655DDDC01CB018C19B6
:1021D0009D09AE09BF0911E084369105A105B1053D
:1021E00068F154DDDC01CB010296A11DB11D89838C
:1021F0009A83AB83BC8380912C0190912D018059EF
:10220000994F20912B01422F50E0253008F044E0F7
:102210009E012F5F3F4FB9010E94632B82E090E047
:102220000E944D2A182F811549F024DD60936C0619
:1022300070936D0680936E0690936F06812F0F90BA
:102240000F900F900F90DF91CF911F91FF90EF9023
:10225000DF90CF900895AF92BF92CF92DF92EF922E
:10226000FF921F93CF93DF9300D000D000D0CDB763
:10227000DEB75B0180E090E00E944D2A182F8115A7
:1022800009F45BC080911E01482F50E0811141E0AC
:1022900060911F01709120016059794FCE0106961F
:1022A0000E94632BC0908806D0908906E0908A0631
:1022B000F0908B06DFDCDC01CB018C199D09AE09A7
:1022C000BF0984369105A105B10530F481E796E098
:1022D000DADB9E81891789F181E090E00E944D2A26
:1022E0008115B1F180912601482F50E0863008F029
:1022F00045E060912701709128016059794FCE0126
:1023000001960E94632B81E796E0BDDB9E818913D5
:102310001FC0B0DC609388067093890680938A069C
:1023200090938B0685E0FE013196A3E8B6E001901C
:102330000D928A95E1F781E00CC085E0E1E7F6E0D7
:10234000DE01119601900D928A95E1F71111EACF05
:1023500080E095E0E3E8F6E0D50101900D929A95D2
:10236000E1F70F900F900F900F900F900F90DF916B
:10237000CF911F91FF90EF90DF90CF90BF90AF90E3
:102380000895A9E0B0E0E7ECF1E10C94D72A88E0E9
:10239000EEEEF6E08E010F5F1F4FD80101900D9217
:1023A0008A95E1F780916706898749E050E06AE7FE
:1023B00076E0C8010E94562B5C01C0906806D09060
:1023C0006906E0906A06F0906B0654DCDC01CB01F4
:1023D0008C199D09AE09BF09B80184369105A10584
:1023E000B10518F4C501892BF1F080913401909169
:1023F00035018059994F20913301422F50E02A3006
:1024000008F049E00E94632B83E090E00E944D2A8F
:10241000811551F02FDC60936806709369068093F4
:102420006A0690936B0681E02996EAE00C94F32A01
:1024300048E050E067E170E08EEE96E00E94902B5D
:102440001092C80308958DE08093EE0680913D01BF
:1024500090913E01A0913F018093EF069093F0068A
:10246000A093F1068FE78093F2068FEF8093F30637
:10247000DFCFCF92DF92EF92FF921F93CF93DF9344
:10248000C090BF03D090C003E090C103F090C2039E
:102490008091AD06811509F453C0ECDB6C197D0900
:1024A0008E099F096B017C01F1DBDB01EC0160937C
:1024B000BF03B093C0038093C103D093C2031091B4
:1024C000F503E5EFF3E0812F90E04FEF5FEF60E081
:1024D00070E04C195D096E097F09191333C08093B0
:1024E000F5038091C30390913B01923009F446C0FB
:1024F000C8F5911141C010920201A093C403B0939A
:10250000C503C093C603D093C70389E2E5EFF3E0A8
:10251000A9ECB3E001900D928A95E1F780916706EE
:10252000811108C08091EE06982F937019F086955E
:102530008695982F9093C30381E080933B0114C04C
:10254000A5DBACCF218D328D421753076105710594
:1025500020F481509F5F3296C0CF2C0D3D1D218FFE
:10256000328FF8CF9330A1F0DF91CF911F91FF9080
:10257000EF90DF90CF900895C2D8F6CF80930101FD
:102580008091EE068370809300012ADD83E0D5CF31
:102590008091C80381114CDFC090C403D090C50363
:1025A000E090C603F090C7038091AD06811569F0F5
:1025B00061DB6C197D098E099F0960317105810508
:1025C000910590F210923B01CFCF60DBF2CFAB01CF
:1025D00024E630E0BC0188E70E9484289C0181E069
:1025E000232B09F080E00895809161068115E9F0C0
:1025F00041DBDC01CB01805A9541AF4FBF4F809347
:102600005A0690935B06A0935C06B0935D0680919A
:102610005E0681110AC062E070E08CEE91E0D7DFC7
:10262000811519F081E080935E060895809161061E
:10263000811561F080915E06811541F062E070E0E5
:102640008AEE91E0C4DF811110925E060895CF9367
:10265000DF93682F81E06A3019F06D3029F480E053
:1026600072D0DF91CF91089580913304909134041A
:1026700026E0FC01A9EBB3E001900D922A95E1F769
:1026800026E0603E08F455C0FC0111922A95E9F756
:10269000C0913304D091340446E050E0BE0189EB90
:1026A00093E00E94562B9E0126553440892B41F120
:1026B000C90145E0969587954A95E1F741E050E0DC
:1026C000BA0102C0660F771F8A95E2F7CB016091CD
:1026D000580670915906862B972BB9016B5F7F4F77
:1026E000E5E076956795EA95E1F702C0440F551F3E
:1026F0006A95E2F7842B952B8093580690935906A0
:102700002A5F3F4F40913504642F70E0C9010E9459
:10271000BB2A481B463010F4240F311D323010F014
:1027200020E030E02A5A3B4F2093330430933404A6
:1027300098CF629FB001112462517E4F46E050E075
:102740000E944D2BA5CFCF93382FE0913304F09109
:102750003404E655F44020913504622F70E0CF0137
:102760000E94BB2A281B822F311561F066E00E946F
:10277000062BC82FC11102C0CF910895C15080E22D
:1027800066DFF8CF8E0F9F2F911D923010F080E002
:1027900090E08A5A9B4F8093330490933404ECCF9B
:1027A000CF93DF93EC01FE018491811103C0DF918F
:1027B000CF9108954CDF2196F6CFF2DF81E0C3CFB1
:1027C0000F931F93CF93DF93EC01FC010190002046
:1027D000E9F78F0101501109C017D10728F0DF91E7
:1027E000CF911F910F910895899131DFF5CF1F92FD
:1027F0001FB61F9211248F939F93AF93BF93809125
:10280000F203811113C08091EF029091F002A09128
:10281000F102B091F2024196A11DB11D8093EF0229
:102820009093F002A093F102B093F202BF91AF91A6
:102830009F918F911F901FBE1F9018952FB7F894EE
:102840008091EF029091F002A091F102B091F2021A
:102850002FBF0895CF93DF93EC01F0DF8C1B9D0B0E
:10286000DF91CF910895AFE0B0E0E9E3F4E10C949B
:10287000D62AFE013196DF018AE01D928A95E9F79A
:102880008AE5C82E82E0D82E7F01AE2E9F2C06E668
:1028900012E0F60181916F018F3F09F43DC0F89479
:1028A000E82FE295EF70F0E021A18F7041E001C0C8
:1028B000440F8A95EAF7922F942B91A392A1842F2B
:1028C0008095892382A3789400C0EFE5F2E031E09F
:1028D000B12C21912F3F79F0A22FA295AF70A05E6D
:1028E000B0E08C9190E02F7002C0959587952A9565
:1028F000E2F780FF7EC080E0B82A330F0E171F0773
:1029000041F7F60182918F3F11F00E94050980EA9C
:102910008A95F1F7F701B0828FEFE81AF80A8FE590
:1029200092E08C159D0509F0B4CF4AE050E06A2D85
:10293000792D83EA96E00E94562B009749F02AE011
:10294000EA2DF92DA3EAB6E001900D922A95E1F760
:102950000091A20610E00856194F892B09F44BC0CC
:1029600081E0809397066ADF8093950690939606A0
:102970008091AD06811509F495C07E018BE0E80ECB
:10298000F11CF70185E011928A95E9F78091900694
:102990008A3008F053C04BE251E1B701C801EDDACB
:1029A000811509F46EC041ED50E1B701C801E5DAC7
:1029B000811509F466C041EC51E1B701C801DDDAC7
:1029C000811509F45EC0109290068091940690E003
:1029D00045E050E0B7018856994F0E94562B21E000
:1029E00020939306892B09F03FC02F96EBE00C94BF
:1029F000F22A832F81CF80919706811509F4B8CFF1
:102A0000E0909506F090960619DF8E199F090597BC
:102A100008F4AECF45E050E063EA76E0C8010E94DA
:102A2000562B892B41F085E0E3EAF6E0D8010190CE
:102A30000D928A95E1F7109297069ACFC090910671
:102A4000D0909206FBDE8C199D09843F914008F0DE
:102A5000A2CF80919306811541F2F70185E0119292
:102A60008A95E9F710929306A0919406B0E0A856D3
:102A7000B94F85E0FE013B9601900D928A95E1F7F2
:102A8000B4CF809190068F3F31F4D8DE80939106C9
:102A900090939206DECF8F5F809390068A3008F481
:102AA00094CFF3CF85E0F801A1E7B6E001900D9255
:102AB0008A95E1F781E796E00E94430D80937006C6
:102AC000C0907606D0907706E0907806F090790670
:102AD00080918C0690918D06A0918E06B0918F0604
:102AE000C816D906EA06FB06A9F0C0928C06D09259
:102AF0008D06E0928E06F0928F06BCD8C61AD70AD1
:102B0000E80AF90AC092AF06D092B006E092B10688
:102B1000F092B20688E0EAE7F6E0AEEEB6E00190A9
:102B20000D928A95E1F7809182060E94780C5DCF24
:102B300085DE9C019091E8068091E906982B21F0B2
:102B400020936406309365069091EA068091EB0627
:102B5000982B21F02093620630936306E091B5062E
:102B6000F091B606309759F00680F781E02D309746
:102B700031F082E08093E60686EE96E009950895AE
:102B8000611509F448C0E82FED5CE33150F4F0E042
:102B9000EB53F44D0C94472B0E946A0D8195809362
:102BA000E906C6CF0E946A0DFACF0E946A0D819590
:102BB0008093E806F6CF0E946A0DFACF0E948A0D34
:102BC0008093EA06EECF0E948A0D8195F9CF0E948C
:102BD0008A0D81958093EB06E4CF0E948A0DFACF8F
:102BE000815D990B21E001C0220F8A95EAF780915F
:102BF000E706822B8093E706D4CF8091E5068160BB
:102C00008093E506CECF8091E5068260F9CF809172
:102C1000E5068460F5CF4091E8068D3C59F480913B
:102C2000E90687FF0DC01092E906411559F410928C
:102C3000E40608C08E3C81F48091E90618169CF3E6
:102C4000411581F08091EA069091EB06892B09F0FD
:102C5000A8CF1092E306A5CF8F3C41F447FFF0CFF9
:102C60001092E8068091E9068115E0CF803D19F4C5
:102C70001416B4F3E5CF9091EA06893D29F41916AC
:102C8000FCF61092EA06DCCF8A3D19F497FFD8CF04
:102C9000F8CF9091EB068B3D29F497FFD1CF10929E
:102CA000EB06CECF8C3D19F41916CCF3C9CF982F73
:102CB000915D983078F4815D990B21E001C0220F7D
:102CC0008A95EAF7822F80959091E7068923809371
:102CD000E706B6CF8D3D31F48091E5068E7F809377
:102CE000E506AECF8E3D21F48091E5068D7FF7CFCE
:102CF0008F3D09F0A5CF8091E5068B7FF0CFCF9374
:102D0000C82F8115A1F08450813A98F4E6EDF2E0E5
:102D10008CED92E02081C217E1F131968E179F076A
:102D2000C9F76C2F84ED92E00E94100EEDD9CF917F
:102D300008958C2F805E883060F4C77021E001C058
:102D4000220FCA95EAF78091F606822B8093F60649
:102D5000EDCF8C2F855A833030F48C2F8452990B11
:102D60000E94C20DE4CFEC2FE85AEB3150F4F0E0B2
:102D7000EE0FFF1FE456FD4F808191810E94E90D07
:102D8000D6CF8C2F8D5C833190F661E08C2FF8DEEE
:102D9000CECF6C2F84ED92E00E942B0EB5D9C1CF1F
:102DA000811579F1982F9450913A30F4682F84ED81
:102DB00092E00E942B0EA8C9982F905E983058F48C
:102DC000982F81E091FD84E090FD880F92FD82951F
:102DD0000E947606F0CF982F955A933020F480E029
:102DE00090E00C94C20D982F985A9B3120F480E00B
:102DF00090E00C94E90D982F9D5C933110F460E005
:102E0000BFCE08951092F606E6EDF2E086E011924C
:102E10008A95E9F780E090E00E94C20D80E090E0A2
:102E20000E94E90D109200076FD9E6EEF6E086E009
:102E300011928A95E9F71092E4061092E306109237
:102E4000E50676CEDFDF88E19AE00FB6F894A89524
:102E5000809360000FBE90936000FFCFAAE2B0E0C5
:102E6000E4E3F7E10C94DE2A8FED92E0FC01019699
:102E70002091F100208322E0873E9207B9F78091EC
:102E8000E002893009F459C0C8F4823009F4B6C0B0
:102E9000833009F485C0813089F18091E80083FF97
:102EA000EAC08091DF029091E0029A3008F0E3C01E
:102EB000E92FF0E0E852F44D0C94472B8A3009F4E6
:102EC0008CC08B3051F78091DF02813231F78091D5
:102ED000E3029091E402892B01F78091E800877F5B
:102EE0008093E8000E94000F81E09091E10291112F
:102EF00001C080E08093070185DFCFCF8091DF02A2
:102F0000813A59F68091E800877F8093E8008091AC
:102F1000E3029091E402892B61F060E080E090E0B0
:102F200070E00E94730E8091E8008B778093E80038
:102F3000B4CF68E087EE92E0F3CF8091DF02813278
:102F400009F0ABCF8091E3029091E402029708F080
:102F5000A4CF8091E800877F8093E8008091E8000B
:102F600082FF19C02091F3008091F200922F029706
:102F700031F48091F100813011F0863021F480919C
:102F8000F100809306018091E8008B778093E80040
:102F90000E94000F82CF8091F4038111DFCF7DCF9B
:102FA0008091DF02813A09F078CF8091E30290911D
:102FB000E402892B09F071CF8091E800877F80932C
:102FC000E8008091E80080FFFCCF809107018093AA
:102FD000F1008091E8008E77D9CF8091DF028132B5
:102FE00009F05BCF8091E800877F8093E8000E9422
:102FF000000F8091E202809305014FCF8091DF02A4
:10300000813A09F04ACF8091E800877F8093E800F9
:103010008091E80080FFFCCF80910501D8CF8038F7
:1030200089F0823841F58091E3028F70873018F57E
:103030008093E9008091EB0085FB882780F910924E
:10304000E90006C08091F303880F9091DC02892B80
:103050009091E800977F9093E8008093F1001092A0
:10306000F1008091E8008E7723C0811116C0809115
:10307000E102813011F18091E80083FF0AC0809164
:10308000E800877F8093E8008091EB008062809366
:10309000EB00AA96E3E00C94FA2A823061F7809163
:1030A000E102811581F01092E9008091E800877FAC
:1030B0008093E8000E94000FDECF933009F080E09B
:1030C0008093F303F0CF8091E3028F70282F21507B
:1030D000263088F68093E9002091EB0020FFE3CFB3
:1030E000933031F48091EB0080628093EB00DBCF72
:1030F0009091EB0090619093EB0021E001C0220FD2
:103100008A95EAF72093EA001092EA008091EB009A
:103110008860EBCF8111AFCF8091E1028F77182FBC
:103120008091E3008078812B8093E3008091E80018
:10313000877F8093E8000E94000F8091E80080FF65
:10314000FCCF8091E30080688093E30083E011115D
:1031500001C082E08093F4038ECF8058823008F063
:103160008ACF2091E1023091E2022C3D83E03807C2
:1031700091F583E08A838AE289834FB7F894DE0170
:10318000139620E03EE051E2E32FF0E05093570029
:10319000849120FF03C082958F703F5F8F708A30CB
:1031A000C0F0895C8D931D922F5F243169F74FBF6A
:1031B0008091E800877F8093E8006AE270E0CE01AA
:1031C00001960E94730E8091E8008B778093E8004F
:1031D00052CF805DE7CF832F90E08330910519F1C6
:1031E00060F48130910509F46CC08230910509F0DA
:1031F00042CF8BE3EBE6F1E029C02091E30230916E
:10320000E4028132910509F453C08232910509F03C
:1032100032CF2130310508F45CC009F02CCF8BE7A8
:10322000ECEAF0E013C0822F90E0213099F1823077
:103230009105B9F1009709F01ECFE6EEF1E0E491B7
:103240008E2FE6EEF1E0009709F415CF2091E8000B
:10325000277F2093E8002091E5023091E602821753
:10326000930708F49C0140E021153105B1F54111A7
:1032700034C08091E80082FDA6CF8091F4038115CF
:1032800009F4A1CF853009F49ECF8091E80083FF37
:10329000F0CF99CFE0EDF1E0E4918E2FE0EDF1E099
:1032A000D2CFE8EBF1E0E4918E2FE8EBF1E0CBCF69
:1032B0002130310550F009F0DECE89E0E6E9F1E099
:1032C000C5CF82E1E6EAF1E0C1CF89E0EDE7F1E0C8
:1032D000BDCF84E4E7E2F1E0B9CF8091F40381153A
:1032E00009F471CF853009F46ECF8091E80083FD39
:1032F0006ACF8091E80082FDBCCF8091E80080FF1A
:10330000B3CF4091F3008091F200942F2115310545
:1033100019F08830910550F041E0089709F040E03D
:103320008091E8008E778093E8009ECF449140938F
:10333000F1003196215031090196E8CF803809F02B
:103340009ACE8091E800877F8093E8008091DD022B
:103350008093F10086CE81118ECE8091E102182FEC
:10336000823008F088CE8091E800877F8093E80063
:103370001093DD020E94000F1115A9F084E08093E4
:10338000F40342E061EC81E00E94D00E42E261EC85
:1033900082E00E94D00E8091F403843051F482E0E8
:1033A0008093080168CE8091E30087FDE7CF81E03C
:1033B000E6CF81E0F5CFFF920F931F93CF93DF937A
:1033C000C62FD42FF22E8115A9F06093EC0636DAC1
:1033D0008093F7029093F80281E0C1FD84E0C0FD84
:1033E000880FC2FD82950E94C210CDB7DEB7E5E01E
:1033F0000C94F82A8091EC06681332C00091F70211
:103400001091F8021BDA801B910B883C910540F566
:103410001D2F105ECD17A1F0C77001E0802F01C0F5
:10342000880FCA95EAF70E94CB10183048F48D2F08
:10343000877001C0000F8A95EAF7802F0E94C210A2
:103440008F2D5DDC8F2DACDC81E0D1FD84E0D0FDE3
:10345000880FD2FD8295183040F60E94CB10C5CF60
:1034600081E0C1FD84E0C0FD880FC2FD8295F5CFEB
:10347000A0E0B0E0EEE3FAE10C94D92A7C01FC0173
:103480008481811521F161E0C7010E94B308EC013C
:10349000F7018581FE01E851FC47E730F10598F519
:1034A000EE51F44D0C94472B26E241EE61EE83DFA2
:1034B0008091FD06877059F0F7018581811539F0FB
:1034C0008091FF0682FF03C082E00E946006CDB7B4
:1034D000DEB7E8E00C94F52A27E245EE65EEE7CF8B
:1034E00026E241EE60EEE3CF27E245EE64EEDFCF69
:1034F00026E241EE62EEDBCF27E245EE66EED7CF65
:1035000028E241E0EBCF811509F4D2C31092EC061A
:103510009E0130572332310508F0DAC384E090E091
:103520000E948B2B8093FE069093FF06FE01E150D4
:10353000F047E232F10520F4E751F44D0C94472BAB
:103540008091FE0681608093FE066091FE06709178
:10355000FF0684E090E00E94B92B54DCA9CF809153
:10356000FF0688608093FF06F0CF8091FE068260A0
:10357000EACF8091FE068460E6CF8091FE068860E7
:10358000E2CF8091FF068160EDCF8091FF068260DF
:10359000E9CF8091FE068061D6CF8091FE068062E1
:1035A000D2CF8091FE068064CECF2CDC8091FE06C7
:1035B0008068C9CF8091FE068C60C5CF8091FF06E0
:1035C0008360D0CF8091FE068E7FBDCF8091FF06B5
:1035D000877FC8CF8091FE068D7FB5CF8091FE0694
:1035E0008B7FB1CF8091FE06877FADCF8091FF06A4
:1035F0008E7FB8CF8091FF068D7FB4CF8091FE067D
:103600008F7EA1CF8091FE068F7D9DCF8091FE069B
:103610008F7B99CFF7DB8091FE068F7794CF8091D7
:10362000FE06837F90CF8091FF068C7F9BCF909189
:10363000FE06892F8B7F92FF8460877F92FF8860D0
:1036400082CF8091FF06982F909590FB80F990FB98
:1036500081F988CF9091FE06892F8F7B96FF806439
:1036600072CFD0DB9091FE06892F97FB87F98058A7
:103670006ACF61E08EE090E00E949F2B66CF60E011
:10368000F9CF9091FE06892F8F7E94FF80615BCFEA
:103690009091FE06892F8E7F90FF816054CF90918C
:1036A000FF06892F877F93FF88605CCF9272FE01AF
:1036B000E052F847EB30F10508F06AC0E55FF34DE2
:1036C0000C94472B9091F6069272FE01E054F84755
:1036D000EF30F10508F05CC0EA5EF34D0C94472B27
:1036E0000E94900CE5CE911591F10E94B50CE0CEB0
:1036F000911591F10E94D40CDBCE911591F10E94AD
:10370000E70CD6CE911591F10E94FD0CD1CE91150A
:1037100091F10E94110DCCCE8091EE06837011F4D0
:1037200010923B018091EE068C7F81608093EE06C3
:103730000E944C0ABDCE8091EE06837011F010926B
:103740003B018091EE068C7FF1CF911571F20E94C2
:10375000AC0CAECE911571F20E94CC0CA9CE911595
:1037600071F20E94DC0CA4CE911571F20E94F20C51
:103770009FCE911571F20E94080D9ACE911529F0F5
:103780000E94280D95CE9115D9F30E941A0D90CE66
:103790009E01205E324520323105A0F4811124C003
:1037A0008C2F8F71C1E0D0E002C0CC0FDD1F8A9555
:1037B000E2F76C2F83E090E00E949F2BCE010E94E5
:1037C000A70576CE811571F1CB359CE7D90709F1B4
:1037D000CC359CE7D90791F0CA359CE7D907B9F0F9
:1037E000C1309CE7D907E9F0C3309CE7D90799F0CD
:1037F000C115DC47B9F406DB0E94610E8091FF061B
:10380000002482FF0394802D0E946D1051CE81E030
:10381000FBCF80E0F9CF6FEF7FEF80E090E00E9478
:10382000B92B10DBF70100811181811509F445C026
:10383000C8010E947F08C82F682FC8010E94CF05C9
:10384000B8018C2F0E947E060E949307D82FC92FA3
:10385000F701D580068102950F708091FD06877073
:1038600001F1CD2CD114F1F0892F807F803461F0EB
:103870008D2F805E8830A8F0892F807E803221F4E1
:10388000D23078F0011569F08091FF0682FF09C0FF
:1038900082E00E9460068091FD068770CC24C3946C
:1038A0008111C12CEC2FE295EF70C03C08F067C08D
:1038B000F0E0EB5DF34D0C94472BC8010E94040629
:1038C000C82FBECF1C2F1F70C03110F01295107F73
:1038D000D114B9F0111569F08D2F805E883010F089
:1038E000D11109C08091F606812B8093F6060E94C3
:1038F00084108D2F3EC080910007812B809300079C
:10390000F6CF8D2F4DDA1115D1F18D2F805E8830D5
:1039100010F0D11104C0812F0E94760606C01095C8
:10392000809100078123809300070E94841027C0A4
:103930001C2F1F70C07FC03211F01295107FD13044
:1039400040F009F461C0D11409F46BC0011599F17C
:10395000D0CF8091FF0682FD2AC0D11461F01115ED
:1039600039F08091F606812B8093F6060E94841030
:1039700080E0C5D904C080E013DA1111CCCFC114A6
:1039800009F4B6C08091FD0680FDB2C0F701158232
:103990008695869586950E94B105C70169DD80915F
:1039A000FD068695869586950E94BF05A1C0D11417
:1039B00089F0013020F4812F0E94C210E0CFF9F687
:1039C0008091F706912F98231917C9F2812B8093C4
:1039D000F706D5CF0111D3CF812F0E94CB10909144
:1039E000F706812F892329F0812F809589238093E1
:1039F000F7068091F806912F982309F4C0CF10950F
:103A000018231093F806BBCFD11421F0063008F02C
:103A1000B6CFD1CF053008F0B2CF812F0E94CB10A6
:103A2000AECF0115D1F3D93349F48FEF97EE23E0F0
:103A3000815090402040E1F700C000008D2FB0D9A8
:103A40009ECF8C2F869586958370813060F009F02B
:103A500096CF8D2F9C2F9370D11002C080E090E004
:103A60000E94E90D8CCF8D2F9C2F9370D11002C036
:103A700080E090E00E94C20D82CF6D2D8D2F80D806
:103A80007ECF8C2F837009F046C0D1102FC04D2FF0
:103A9000429546954770440F440F2D2F2F7030E00C
:103AA000042E02C0220F331F0A94E2F780E090E058
:103AB000D4FF09C08FE090E002C0880F991F4A959B
:103AC000E2F780959095C695C695C370C230D1F047
:103AD000C330A9F04091F9065091FA06C13069F05F
:103AE000822B932B842395230E94A7050E94AF0D60
:103AF00060E0C7010E94B308EACC242B352B822B4F
:103B0000932BF2CF822B932B2091F9063091FA065A
:103B100082279327E9CFD11491F1C0FFE7CF4D2F32
:103B2000429546954770440F440F2D2F2F7030E07B
:103B3000042E02C0220F331F0A94E2F780E090E0C7
:103B4000D4FF09C08FE090E002C0880F991F4A950A
:103B5000E2F780959095C695C695C370C230B9F0CE
:103B6000C33091F04091FB065091FC06C13051F0FA
:103B7000822B932B842395230E94AC05B7CF8230F0
:103B800070F6B4CF242B352B822B932BF5CF822BC1
:103B9000932B2091FB063091FC0682279327ECCFD4
:103BA000CF70D11439F08C2F0E94B1058D2F0E9457
:103BB000C2109CCF8D2F0E94CB108C2F0E94BF056E
:103BC00095CFD23F91F168F4D03FC1F0D13F89F059
:103BD000D11409F45AC0011509F454C08D2F8FD89F
:103BE00085CFD33F49F1D43F99F79091FF0692FDDD
:103BF00031C08C2F8F71D11409F31BC0D11499F0EF
:103C0000053008F073CFCF7181E090E002C0880FDB
:103C1000991FCA95E2F7EC018091FB069091FC0692
:103C20008C279D27A9CF0630ECCF8C2F8F71D11018
:103C3000C5CF0E94B1055ACF80E090E0D11409F4BD
:103C40009BCFCF7181E090E002C0880F991FCA9589
:103C5000E2F792CFD11461F08C2F8F7192FFE9CFF0
:103C6000982F990F990F990F93609093FD06E1CFCC
:103C700081E00E946006023008F438CF82E00E94A2
:103C8000600634CF8C2F8F71D4CF011571F0D933EA
:103C900049F48FEF97EE23E0815090402040E1F708
:103CA00000C000008D2F7CD821CF8C2F8F7186CF44
:103CB000C6319CE7D90709F005CD8091ED0665E393
:103CC000811101C069E284ED92E00E942B0E16C0C2
:103CD0009091F606C6312CE7D20709F0E7CC9A7A24
:103CE00081E0911101C080E08093ED0665E39111C0
:103CF00001C069E284ED92E00E94100E0E948410DF
:103D0000D7CB80914107803170F4809140078115B5
:103D100051F0E09102072091010730913C0740915A
:103D20003B072E1301C00895BF0187E0E89FF00113
:103D30001124DF01AD5FB84F14968C911497811553
:103D400051F111968C911197831325C08C91841396
:103D500022C015968C91159781111DC012968D91D8
:103D60009D91A0913D07B0913E078A1B9B0B883C1B
:103D7000910588F4809141078F708061809341079D
:103D8000E75FF84F80818F70806180838BE397E0DD
:103D90006FDB0C9456066F5F7F4FFB01E770C1CF5E
:103DA000ADE0B0E0E6EDFEE10C94D42A8C0186E0B3
:103DB000F801DE01189601900D928A95E1F7F8015D
:103DC000F580C4808BE3882E87E0982E70903F07A3
:103DD00071101FC0C114D1F0F11409F415C1C8014C
:103DE0000E94D808811509F40FC187E0F801D401B9
:103DF00001900D928A95E1F78C2D813031F48091FC
:103E00003B0790913C070E94CE087BDFFF24F39490
:103E100053C0E080A280B380D090400780913D07DE
:103E200090913E079501281B390BD11409F4B5C0B8
:103E3000283C310508F08DC0C11441F390913C0736
:103E4000C18080914107803108F056C0C91213C06B
:103E500090913B079E110FC0F11048C08F70806198
:103E6000809341078BE397E003DB80914107F801E2
:103E70008683F12C21C0F11039C040E06C2D8E2DCD
:103E80000E94370640E06C2D8E2D0E943706F82EDA
:103E90008111EFCF888599850E94CE08292F229520
:103EA0002F70903470F49F70223098F09115A9F023
:103EB000F8019681903188F48F2D2D96EDE00C94C9
:103EC000F02A2A5F2F70223060F0C801D1DAFD2C71
:103ED000F3CF911511F0811579F3805E883060F38E
:103EE000F4CF803F48F3815F8330F9CF8091410761
:103EF000816080934107BDCFC91207C090913B07F5
:103F00009E1103C0F11409F469C0C8010E94D808C9
:103F1000811509F479C0F11409F476C08091410744
:103F2000803270F020913B0730913C0729833A831F
:103F3000AB82BC827D821E828F83CE01019698DA8D
:103F400087E0F801ABE3B7E001900D928A95E1F7C5
:103F50005CCF80914107803148F48BE397E088DAA9
:103F6000F40187E011928A95E9F783CFC11409F42F
:103F70004DCF20913C0791812913C7CF90913B07EA
:103F80009E11C3CFF110C1CF8683C80171DAF4014D
:103F900087E011928A95E9F739CF283C310500F77F
:103FA000C11409F433CFF11479F190913C07818168
:103FB000981320C080913B078E111CC0809141074F
:103FC00080FD0FC0803168F08683807F803F39F0AC
:103FD0008681982F907F905F8F70892B8683C80190
:103FE00047DA87E0F801ABE3B7E001900D928A95DC
:103FF000E1F70CCFC8010E94D8088111A1CF8091B0
:104000004107816080934107C80132DAFFCEABE1FE
:10401000B0E0EDE0F0E20C94DD2A4E8B5F8B688F10
:10402000798F8A8F192F9B8F9111109200071D8A0B
:1040300086E0FE017696DE011F9601900D928A952C
:10404000E1F70A8D011561F00B8B1C8B61E0CE014D
:104050000F960E94B30861E0CE010F960E94B3084C
:104060000B8B1C8B87E0FE013F96DE0118960190BA
:104070000D928A95E1F7CE01089692DE81112EC04D
:10408000209101073091020787E0AE01485F5F4F42
:10409000FA0147505109DA0101900D928A95E1F732
:1040A0008C858115D9F0822F90E08395877090E000
:1040B000AC0134171506E1F097E0929FD00111246E
:1040C000AD5FB84F9E012F5F3F4FF90101900D92F8
:1040D0009A95E1F7409301070E94560680910207E6
:1040E00090910107891311C06B96E4E00C94F92AB2
:1040F0000E9402171092010710920207EBE3F7E00B
:1041000087E011928A95E9F7E9CF27E0829FC00105
:1041100011248D5F984F44DE811531F380910207A1
:10412000909103070196877080930207D7CFA6E08E
:10413000B0E0EDE9F0E20C94DD2A0E941E148C013F
:104140008091B3069091B4068017910771F019829F
:104150001A820E941E14BC0149815A8180E090E0BD
:1041600056DF0093B3061093B4062696E4E00C9451
:10417000F92ACDB7DEB760970FB6F894DEBF0FBE51
:10418000CDBF85B7806885BF85B7806885BF84B798
:10419000877F84BF0FB6F894A895809160008861EE
:1041A00080936000109260000FBE80E890E00FB630
:1041B000F89480936100909361000FBE81E080933A
:1041C000080183E099E08093D2029093D3020E9489
:1041D0009F0F0E94500F8091E20084608093E20064
:1041E00078948091F403811599F08091E900109101
:1041F000EC008F7010FB112717F9182B1092E900B3
:104200008091E80083FD0E942E171F701093E90033
:1042100082E084BD93E095BD9AEF97BD80936E00D8
:104220001092AF061092B0061092B1061092B2062C
:104230008091D80080618093D8008AE18A95F1F757
:1042400000C08091D900182F117080FD04C00E9419
:104250009F0F1092F4031093AD061093AE061093C7
:10426000090111118BC095E09093A20685E0891B8E
:10427000809394060AE512E0F80181918F018F3F47
:1042800011F00E94050982E00F351807A9F72FE504
:10429000E22E22E0F22E06E612E0F70181917F0184
:1042A0008F3F11F00E9405090E151F05B1F7E8E9CF
:1042B000F6E08AE011928A95E9F7E3EAF6E08AE00F
:1042C00011928A95E9F780E090E00E948B2B833E63
:1042D0009E4F69F163EE7EEF80E090E00E94B92B83
:1042E00060E082E090E00E949F2B81E090E080936C
:1042F000F9061092FA0661E083E00E949F2B60E0CD
:1043000074E184E090E00E94B92B0E94231260E0E7
:1043100070E0AB018FE090E00E94B12B60E070E0B4
:10432000AB0183E190E00E94B12B0E94181282E061
:1043300090E00E94832B8093280484E090E00E9408
:104340008B2B8093FE069093FF060E9433148FEF11
:1043500096E721E0815090402040E1F700C0000046
:104360000E9433148091980680FF10C06FEF7FEF9A
:1043700080E090E00E94B92B0E94610EADD7809141
:10438000AE06811509F46FCF90E06ECF83E090E028
:104390000E94832B90E00E94A7050E94360D109288
:1043A000C90340E150E06FEF70E082EE93E00E94BD
:1043B0006C2B1092F50340E150E06FEF70E08EE05F
:1043C00094E00E946C2B81E08093C80348E050E0A9
:1043D00067E170E08EEE96E00E94732B1092C803A6
:1043E0008091EE06843010F40E942312109256063B
:1043F00080E8809335040BD66BE070E085E498E0AC
:104400000E94E7128115E9F18091560665E070E09F
:1044100081FD4BC180E498E00E94E712811589F18B
:104420006DE070E08EE298E00E94E712811549F19C
:104430000E943A0EDC01CB01805A9541AF4FBF4F2D
:1044400080935A0690935B06A0935C06B0935D063A
:10445000E6E5F4E0DF0180E092E01D920197E9F7E4
:10446000E0933304F09334048FEF9FEF809358066A
:104470009093590681E08093610680935E061092C6
:1044800057068091AD06811101C029D78AE091E0DD
:104490008093B5069093B60691E0692E712CCE01FB
:1044A00001968D879E878091F403853081F400E129
:1044B00010E482E1F82E8091F403853009F4F8C00D
:1044C0000E9402170E94AF0D80E00E94780C0E94AB
:1044D000331489E294E089879A8788E996E08B878C
:1044E0009C8723E334E0FC01A9E2B4E09D91808144
:1044F0002A173B0709F43AC131969817B9F380910E
:10450000AD06888BBEE1CB2EB4E0DB2E8AE491E0D1
:104510008F839887512CEB85FC854190EB87FC8736
:10452000E985FA858191E987FA87841509F4ABC09A
:1045300084258F8700E010E0332433948F85832116
:1045400009F497C0242C232088898115F9F0F601FD
:10455000808190E09301002E01C0220F0A94EAF7B7
:104560008223892B99F409835A820E941E148B831B
:104570009C8381E08D8391E0211001C090E09E83B7
:1045800049815A816B817C818D8141DD211441F00B
:10459000EF81F885E00FF11F80818F3F09F022C382
:1045A000812CE82CF12C8091F503880D9927991F17
:1045B00009976CF1E8E0AE2EB12CAE18BF08B70138
:1045C0006A507C4FA50186EF93E00E94632BB701F0
:1045D00062507C4FA5018EEF93E00E94632BA501F2
:1045E000440F551FB701660F771F625F7B4F8EE048
:1045F00094E00E94632BB7016A5F7B4FA50186E0C0
:1046000094E00E94632B88E088198093F50381145D
:1046100011F14091F503892D90E0242F30E0F9014C
:10462000EB50FC4FDC01AA0FBB1FA057BE4F5C91A3
:104630005183880F991F8F569E4FDC018C91818783
:10464000918A220F331FF901EB50FC4F118E128E0D
:104650004F5F4093F50321100CC0862D002E01C042
:10466000880F0A94EAF7982F9095F60180818923A4
:104670008083330C0F5F1F4F0730110509F05ECFA9
:10468000E985FA85429253948FEFC81AD80A8F8130
:10469000988507968F839887852D8A3009F03BCFC0
:1046A0000E94460EDD24D39465C08BE398E0B4CE1F
:1046B0008091F403843051F10E94391281E00E940C
:1046C000780C0E9416131092F20388E190E00FB666
:1046D000F894A895809360000FBE1093600083B794
:1046E000817F846083BF83B7816083BF789488951E
:1046F00083B78E7F83BF0FB6F894A8958091600032
:10470000886180936000109260000FBE0E94331495
:10471000E8E9F6E0AEE1B4E080E021912D9391E08C
:10472000211101C090E0892B96E0E23AF907A9F740
:10473000811509F4C0CE8091F303811509F4BBCE35
:1047400009BDF9BC09B400FEFDCF8091D8008F7D72
:104750008093D8008091E00082608093E000809197
:10476000E00081FDFCCF0E940217A5CE9813C7CEB2
:10477000DEDCD12C0E94391280916106811509F48A
:1047800055C100915F06109160060E941E14801BA7
:10479000910BC29708F470C00E941E1480935F06AC
:1047A0009093600686E594E08093330490933404FC
:1047B0008091AD06811509F434C28091FE0682FD18
:1047C00015C287EE98E00E94D01385EE98E00E9413
:1047D000D0138AEE98E00E94D0138AED98E00E94F0
:1047E000D0132091FC06822F90E021110AC2809103
:1047F000FB06922FAC0174E0569547957A95E1F748
:104800004115510511F02C5FCA01AC015695479531
:10481000569547954115510511F02E5FCA019695A1
:104820008795820F823009F4F6C108F0ECC181113E
:10483000EFC182ED98E00E94DD1383EB98E00E94C7
:10484000D0130E94AF0D182F8EEA98E010FD02C021
:1048500089EA98E00E94D01384EA98E011FD02C032
:104860008FE998E00E94D0138AE998E012FD02C017
:1048700085E998E00E94D0138091580690915906DE
:10488000892B09F4B8C080916106811509F4B3C081
:10489000809157068111AFC00E94F4128091580692
:1048A00090915906009709F4A6C080FBEE24E0F829
:1048B000F12C10E080FD0DC01F5F7301012E02C0BE
:1048C000EE0CFF1C0A94E2F79C012E213F21232BC2
:1048D00099F38091560680FFD7C1912F990F990FB8
:1048E000990F392F395F80E023E090931601809370
:1048F00019013093170120931A0124E630E047E0B4
:1049000050E064E171E088E7B5D3892B09F073C00A
:1049100080E2189FA00111248091560680FFC6C135
:10492000E6E3F4E080E211928A95E9F704E512E00B
:1049300090E5492E92E0592ED801ED918D01D201DA
:104940008D912D011A01280E311CF0E0EA5CFB4F1D
:1049500020E030E087E0A82EA21AC62C022E01C06B
:10496000CC0C0A94EAF7C1018A5A9B4F8F8398872F
:1049700090E0AF81B8858D91AF83B8878C21AA2D47
:10498000A91BA770B0E0682F0A2E01C0660F0A9419
:10499000EAF7B195A195B109A77001C08695AA95CE
:1049A000EAF7862BA081A82BA0839F5F983009F798
:1049B0002F5F3F4F31962830310561F688E592E050
:1049C0008017910709F0B8CF04E610E020E230E04C
:1049D00046E354E060E488E7DDD3892B61F4E0949A
:1049E000F0948091580690915906E822F922E092BD
:1049F0005806F092590680915E068115B9F00E9422
:104A00003A0E00915A0610915B0620915C06309197
:104A10005D06DC01CB01801B910BA20BB30B8F3F1A
:104A20009F4FAF4FBF4710F40E941613D1100E9442
:104A3000F41286E0E6EEF6E0AD85BE8501900D92BB
:104A40008A95E1F7B090E706D090E8060091E90674
:104A5000C090EA061091EB061092E8061092E90663
:104A60001092EA061092EB06802F8D2909F441C0BE
:104A7000E0906406F09065060E941E148E199F094E
:104A80009C019091E406911509F41CC12531310572
:104A900080F19F3F19F09F5F9093E406D11459F085
:104AA0000E946A0D91E01D140CF09FEF899F802DEC
:104AB00011248093E806011559F00E946A0D91E0D7
:104AC00010160CF09FEF899F802D11248093E9062A
:104AD0008091E806811569F0F090E906F11449F03B
:104AE0000E945C0D8093E8068F2D0E945C0D8093E0
:104AF000E9068C2D812B09F441C0E0906206F0900C
:104B000063060E941E148E199F099C019091E30672
:104B1000911509F4D2C02135310580F19F3F19F07C
:104B20009F5F9093E306C11459F00E948A0D91E0B3
:104B30001C140CF09FEF899F802D11248093EA06AE
:104B4000111559F00E948A0D91E011160CF09FEF9B
:104B5000899F802D11248093EB068091EA068115B0
:104B600069F0F090EB06F11449F00E945C0D80931F
:104B7000EA068F2D0E945C0D8093EB068091E7067C
:104B8000B81219C08091E806811511F08D1113C07B
:104B90002091E906211511F020130DC09091EB062C
:104BA000911511F0911307C03091EA06311103C03D
:104BB000822B892B11F00E94981586E0ED85FE85E9
:104BC000A6EEB6E001900D928A95E1F70E94AF0D36
:104BD00090916606891709F466CC809366060E9458
:104BE0003A0E61CC982E88248394DBCC8DEE98E02D
:104BF0000E94D01383EE98E00E94D01380EF98E0DB
:104C0000EACD28E0F7CD833049F085EB98E013CE6C
:104C10008CEC98E010CE86EC98E00DCE8FEB98E00F
:104C20000ACE85E598E00E94D01380E598E00E94C6
:104C3000D0138091EE06869586950E946A050E94A3
:104C4000E0138AE30E9427138091EF0686958695EC
:104C500086950E946A050E94E0138CE20E94271349
:104C60008091F00682958F700E946A050E94E01381
:104C70008CE20E9427138091F10682958F700E942A
:104C80006A050E94E013F8CD20E2129FC0011124B2
:104C9000880F492F441F550B5195242F912F929522
:104CA000990F9076392F315E842F1FCE4A5A5B4F71
:104CB00004E610E020E230E08DCE2B30310508F024
:104CC0002FCF5CCF2B30310508F0E5CE12CF789492
:104CD0001F921FB61F9211248F939F93AF93BF9380
:104CE0008091EF029091F002A091F102B091F20256
:104CF0000196A11DB11D8093EF029093F002A09345
:104D0000F102B093F202BF91AF919F918F911F90EA
:104D10001FBE1F9018951F920F920FB60F9211246D
:104D20002F933F934F935F936F937F938F939F93B3
:104D3000AF93BF93EF93FF938091E10082FF09C08F
:104D40008091E20082FF05C08091E1008B7F80931B
:104D5000E1008091DA0080FF24C08091D80080FFBC
:104D600020C08091DA008E7F8093DA008091D90094
:104D700080FFA9C080E189BD82E189BD09B400FE40
:104D8000FDCF81E08093F4038091DE02811109C0A0
:104D90000E949F0F0E94500F8091E20084608093D8
:104DA000E2008091E10080FF1AC08091E20080FF64
:104DB00016C08091E2008E7F8093E2008091E20035
:104DC00080618093E2008091D80080628093D80057
:104DD00019BC85E08093F40383E0809308018091FF
:104DE000E10084FF2FC08091E20084FF2BC080E1AE
:104DF00089BD82E189BD09B400FEFDCF8091D80054
:104E00008F7D8093D8008091E1008F7E8093E100B8
:104E10008091E2008F7E8093E2008091E2008160C9
:104E20008093E2008091DD02811509F452C084E094
:104E30008093F4038091F403843009F052C082E03F
:104E4000809308018091E10083FF2CC08091E200F3
:104E500083FF28C08091E100877F8093E10082E09A
:104E60008093F4031092DD028091E1008E7F8093A5
:104E7000E1008091E2008E7F8093E2008091E20069
:104E800080618093E20042E060E080E00E94D00E0A
:104E90008091F00088608093F00081E080930801A9
:104EA00080930701FF91EF91BF91AF919F918F91F7
:104EB0007F916F915F914F913F912F910F900FBE16
:104EC0000F901F90189519BC1092F4031092DE02F7
:104ED00068CF8091E30087FF02C083E0A9CF81E023
:104EE000A7CF81E0ADCF1F920F920FB60F92112482
:104EF0001F932F933F934F935F936F937F938F9362
:104F00009F93AF93BF93CF93DF93EF93FF93E9EE1C
:104F1000F0E080811091EC008F7010FB112717F9E1
:104F2000182B1082C0EFD0E08881877F8883789427
:104F30000E942E17E9EEF0E0108288818860888355
:104F40001F701083FF91EF91DF91CF91BF91AF91CF
:104F50009F918F917F916F915F914F913F912F9191
:104F60001F910F900FBE0F901F901895EF92FF9218
:104F70001F93CF93DF93182FEB011092BC0084EAAC
:104F80008093BC000E941E147C018091BC0087FFAE
:104F900026C08091B900887F883029F08091B900BF
:104FA000887F803189F51093BB0084E88093BC0032
:104FB0000E941E147C018091BC0087FF1EC02091BE
:104FC000B900287F80E090E0283189F081E090E00E
:104FD000203409F480E091958195910908C0C701BA
:104FE0000E942A14C817D90780F68EEF9FEFDF9131
:104FF000CF911F91FF90EF900895C7010E942A144E
:10500000C817D907C0F6F1CF8FEF9FEFF0CF1092FE
:10501000B9008CE08093B80008950F931F93CF934D
:10502000DF93EB018093BB0084E88093BC000E9477
:105030001E148C018091BC0087FF10C02091B90024
:10504000287F81E090E0283209F480E091958195F5
:105050009109DF91CF911F910F910895CF3FDC0708
:1050600049F3C8010E942A14C817D90718F78EEF10
:105070009FEFEFCFA0E0B0E0EFE3F8E295C2982E0B
:10508000862E772E6A0179010E941E145C0184E14C
:10509000E816F10410F18FEFE816FE0409F1C701DC
:1050A00064E170E068D2162F072F612F702F892DD1
:1050B0005DDFEC01892BB1F4082D172DC00ED11E38
:1050C0000C151D0511F02097C1F084E98093BC00F8
:1050D000CE01CDB7DEB7EDE083C211E000E0E5CF51
:1050E00015E0FCCF8FEFE816FE04F9F2C5010E942F
:1050F0002A14E816F906C8F6DFCFB701F801819146
:105100008F018BDFEC01DCCFA0E0B0E0E9E8F8E252
:105110004BC2982E862E772E6A0189010E941E149A
:105120005C010431110500F10F3F100701F1C801C6
:1051300064E170E020D2EB01BE01892D17DF7C0114
:10514000892BB9F4C82DD72DCC0EDD1ECC15DD056D
:1051500019F0E114F104B9F084E98093BC00C701AF
:10516000CDB7DEB7EDE03CC2C1E0D0E0E5CFC5E0B1
:10517000FCCF0F3F100701F3C5010E942A14081746
:105180001907D0F6DFCFFE018491B80146DF7C011C
:105190002196DCCFA0E0B0E0EFECF8E204C2982E5C
:1051A000862E742E652E6901E8010E941E145C0192
:1051B0000431110508F10F3F100711F1C80164E136
:1051C00070E0D9D1F62EE72E6F2D7E2D892DCEDE03
:1051D0008C01892BC1F0CF3FDC07B1F3C5010E94E0
:1051E0002A14C817D90780F784E98093BC00C80146
:1051F000CDB7DEB7EEE0F3C1FF24F394E12CE4CFAA
:1052000085E0F82EFBCFBE01882D07DF8C01E72C4F
:10521000F62CCE0CDF1CEC14FD0431F30115110546
:1052200019F7BE01F70181917F01F7DE8C01F3CF01
:105230008EE14A9B02C08150E1F74A9BFECF089560
:105240005A9880E28A95F1F75A9A0895FC018BE00A
:105250008A95F1F728E080E090E031E040E14A955E
:10526000F1F7880F4A9B02C08160932742E04A957C
:10527000F1F7000040E14A95F1F7215079F720E17C
:105280002A95F1F729B132E03A95F1F7000030E1C3
:105290003A95F1F731E022FD93272081920F908318
:1052A0000895A1E0B0E0E6E5F9E285C119828C013C
:1052B0007C01E60EF11CBCDFCE010196C7DFF801D0
:1052C00081938F01EE15FF05B1F781E0998191116E
:1052D00080E02196E6E08BC1529A5A9A089552983E
:1052E0005A9AEA9AE9E6F0E080818F7C80830895FB
:1052F0006150770B91E001C0990F6A95EAF7692F29
:1053000090E021E0611108C0911591F05A9A80E275
:105310008A95F1F75A980895362F382339F05A9A1A
:10532000922730E23A95F1F76695ECCF5A98F9CF8B
:105330005A98EDCFFF920F931F93CF93DF93EC0119
:105340008C01060F111D8991F82E7ADF68E08F2DF0
:10535000CFDFC017D107B9F7CDB7DEB7E5E048C159
:105360001F920F920FB60F9211240F931F932F933A
:105370003F934F935F936F937F938F939F93AF93DD
:10538000BF93EF93FF93CF93DF930F92CDB7DEB729
:1053900019824EDFCE01019659DF082F069506953A
:1053A0000695282F22952570902F9570920F292F02
:1053B000237096959695920F982797708981892BDF
:1053C00009F055C0053008F052C080E18A95F1F728
:1053D0005A9A529A82E08A95F1F700C05A9888E06A
:1053E000089F80011124D801A55EBE4F1696ED914D
:1053F000FD911897309791F0609158027091590281
:1054000014962D913D91260F371F15978D919D91E3
:10541000680F791F4C9113978C910995F801E55EFF
:10542000FE4F6381611549F0209158023091590275
:1054300084819581820F931F7DDF02DF80E18A9551
:10544000F1F75A9852985A9A80E18A95F1F7F80143
:10545000E55EFE4F6081611549F020915802309160
:10546000590281819281820F931F1BDFE1DE0F9031
:10547000DF91CF91FF91EF91BF91AF919F918F916C
:105480007F916F915F914F913F912F911F910F915C
:105490000F900FBE0F901F9018950F931F93CF93EF
:1054A000DF93EC0105970CF05EC0F894529A5A987D
:1054B00085E08A95F1F700009C2F969595708C2FCA
:1054C0008570980F892F837096959695292F93E074
:1054D000CC0FDD1F9A95E1F7280F822F8C2B082F18
:1054E000AFDE00C068E0802F03DF80E18A95F1F72E
:1054F00052985A9A4A9B30C087E090E04A992EC051
:10550000FE01E55EFE4F6381611559F0209158025E
:105510003091590284819581820F931FC2DE8115DB
:10552000F9F086DE80E28A95F1F75A98529A80E186
:105530008A95F1F7C55EDE4F6881611549F02091CB
:1055400058023091590289819A81820F931FF2DEAD
:1055500077DE789481E008C000C0CCCF019749F491
:10556000529A5A9A789480E0DF91CF911F910F91CF
:10557000089500C0C3CFAA1BBB1B51E107C0AA1FDF
:10558000BB1FA617B70710F0A61BB70B881F991FE4
:105590005A95A9F780959095BC01CD0108952F9259
:1055A0003F924F925F926F927F928F929F92AF92B3
:1055B000BF92CF92DF92EF92FF920F931F93CF9300
:1055C000DF93CDB7DEB7CA1BDB0B0FB6F894DEBF97
:1055D0000FBECDBF09942A88398848885F846E84BD
:1055E0007D848C849B84AA84B984C884DF80EE8007
:1055F000FD800C811B81AA81B981CE0FD11D0FB610
:10560000F894DEBF0FBECDBFED010895992778E075
:10561000880F991F961708F0961B881F7A95C9F76F
:105620008095089597FB072E16F4009406D077FD19
:1056300008D0A1DF07FC05D03EF4909581959F4FDF
:105640000895709561957F4F0895A1E21A2EAA1BC7
:10565000BB1BFD010DC0AA1FBB1FEE1FFF1FA21722
:10566000B307E407F50720F0A21BB30BE40BF50B1F
:10567000661F771F881F991F1A9469F760957095A8
:10568000809590959B01AC01BD01CF010895EE0F6F
:10569000FF1F0590F491E02D0994FB01DC0102C08D
:1056A00005900D9241505040D8F70895FB01DC0160
:1056B00004C08D910190801921F441505040C8F7E9
:1056C000881B990B0895FB01DC0102C001900D922B
:1056D00041505040D8F70895DC0101C06D9341500E
:1056E0005040E0F70895DC01CB01FC01F999FECFB1
:1056F00006C0F2BDE1BDF89A319600B40D9241505A
:105700005040B8F70895F999FECF92BD81BDF89A3F
:10571000992780B50895A8E1B0E042E050E0E5CFD8
:10572000DC01A40FB51F4150504040F0CB01840F65
:10573000951F2E9105D041505040D8F70895262F3F
:10574000F999FECF92BD81BDF89A019700B4021677
:1057500039F01FBA20BD0FB6F894FA9AF99A0FBE25
:1057600008950396272FECDFEADF252FE9DF242FAA
:10577000E7CF0196272FE4DFE2CFF894FFCFCF0BDE
:10578000F40BF80BFB0B340C390CCC15D215D515DA
:10579000DB15F015F015F015F015F015F015F015F6
:1057A000F015DE15E315E715ED15FD1503160716C3
:1057B0000F1835183B1835183B188A18AD183B18C8
:1057C0009E19AB19701A741A541A6C1A781A7C1A2A
:1057D000801AE21A481BEA1AB51AB91AEE1ABD1A4B
:1057E000F21AFE1AC91A411BCD1A021BD11A061B46
:1057F0002A1BD51A0A1B311BDA1A0F1B171BC11AD9
:10580000F61AC51AFA1ADE1A131B211B391B3F1B85
:10581000AF1AE61A4F1B701B731BA51B781BAA1B24
:105820007D1BAF1B821BB41B871BB91B8C1B9B1BD7
:10583000701B731BA51B781BAA1B7D1BAF1B821B38
:10584000B41B871BB91BBE1BC31B621C621C981CAC
:10585000981C211D3D1DBF1CBF1C411DD01DE11DFD
:02586000E11D48
:10586200FFFF00FF000000010001370E5010720E12
:10587200631068100021007F220003000000010075
:105882000000000000000501000000040600000006
:10589200000000090A00000000000003FF00FF965C
:1058A200FF00003131295A1B750A05040302010069
:1058B200FF060708090A0BFF11100F0E0D0CFF124D
:1058C2001314151617181F1E1D1C1B1A1925242325
:1058D200222120FF262728292A2BFF31302F2E2D87
:1058E2002CFF323334353637383F3E3D3C3B3A3974
:1058F2005000400030002000100000000010101086
:105902002010301040105010502040203020202015
:105912001020002000301030203030304030503025
:1059220060306040504040403040204010400040D5
:105932009000A000B000C000D000E000E010D01045
:10594200C010B010A01090109020A020B020C02055
:10595200D020E020E030D030C030B030A0309030E5
:10596200803080409040A040B040C040D040E040F5
:1059720004040404040404040404040404040404E5
:1059820004040404040404040404040404040404D5
:1059920004040404040404040404040404040404C5
:1059A20004040404040404040404040404040404B5
:1059B20000081018181008007006946697C634F490
:1059C200F5F6F7313332E200E900EA00B500B6003D
:1059D200B700CD008301CC008A019201940121021B
:1059E200230224022502260227022A02B300B4005F
:1059F2006F0070009F01CB019F02A002E200E9004C
:105A0200EA00B500B600B700CD008301CC008A01E0
:105A12009201940121022302240225022602270276
:105A22002A02B300B4006F0070009F01CB019F02F5
:025A3200A002D0
:00000001FF
